:020000040800F2
:10000000B80F002031020008312A000889260008B4
:100010002D2A0008E9070008053300080000000049
:100020000000000000000000000000001D2D00087E
:100030008D090008000000001B2D00081F2D00087E
:100040004B0200084B0200084B0200084B0200085C
:100050004B0200084B0200084B0200084B0200084C
:100060004B0200084B0200084B0200084B0200083C
:100070004B0200084B0200084B0200084B0200082C
:100080004B0200084B0200084B0200084B0200081C
:10009000ED0700084B0200084B0200084B02000865
:1000A0004B0200084B0200084B0200084B020008FC
:1000B0004B0200084B0200084B0200084B020008EC
:1000C0004B0200084B0200084B0200084B020008DC
:1000D0004B020008E53200084B0200084B02000802
:1000E0004B0200084B0200084B0200084B020008BC
:1000F0004B0200084B0200084B0200084B020008AC
:100100004B0200084B0200084B0200084B0200089B
:100110004B0200084B0200084B0200084B0200088B
:100120004B0200084B0200084B0200084B0200087B
:100130004B0200084B0200084B0200084B0200086B
:10014000FD0700084B0200084B0200084B020008A4
:100150004B0200084B0200084B020008F532000871
:100160004B0200084B0200084B0200084B0200083B
:100170004B0200084B0200084B0200080000000080
:100180004B0200084B02000800F002F800F040F8B3
:100190000AA090E8000C82448344AAF10107DA45E2
:1001A00001D100F035F8AFF2090EBAE80F0013F0F4
:1001B000010F18BFFB1A43F0010318478C320000EF
:1001C000AC320000103A24BF78C878C1FAD8520780
:1001D00024BF30C830C144BF04680C6070470000C1
:1001E0000023002400250026103A28BF78C1FBD840
:1001F000520728BF30C148BF0B6070471FB503F0DE
:1002000011F99DE8030000F0DFF91FBD10B510BD26
:1002100000F068FA1146FFF7F1FF03F0BFF800F0B5
:1002200086FA03B4FFF7F2FF03BC00F0B7FA000050
:100230000948804709480047FEE7FEE7FEE7FEE77A
:10024000FEE7FEE7FEE7FEE7FEE7FEE704480549B6
:10025000054A064B70470000DD2D000889010008A3
:10026000B8050020B80F0020B8070020B80700200C
:1002700070B5064600F08CF9056806F10B0020F019
:100280000704B4429CBF002070BD2B466A68BAB117
:100290001068A04210D304F1080188423CBF5068A6
:1002A000586007D35168101941601168091B01603B
:1002B00058601460101D70BD13465268002AE7D1C3
:1002C0002146284600F06CF90028DED170BD70B5DB
:1002D0000446051F00F05CF90068002C14BF446858
:1002E00070BD002C18BFAC423CBF20466468F8D3F8
:1002F00001680A18AA4218BF456003D12A6805465A
:100300001144016028684119A1421CBF6C6070BD96
:100310006168696021680844286070BD53EA020C76
:1003200000F069802DE9F04B4FF00006002B1FBF55
:10033000B3FA83F503FA05F424FA05F65E4012BF1A
:100340001643B2FA82F502FA05F4C5F120051EBF84
:1003500022FA05FC44EA0C04203556EA044C4FEA24
:10036000144418BF641C4FF000084FF0000990427D
:1003700071EB030C39D3002919BFB1FA81F701FAE7
:1003800007F6B0FA80F700FA07F6C7F120071EBF9C
:1003900020FA07FC46EA0C062037B6FBF4FCA7EB74
:1003A0000507103F07F01F0BCBF120060CFA0BFBE3
:1003B0002CFA06F644BFB3460026202FA4BF5E46A3
:1003C0004FF0000B5BEA060C08BF4FF0010B19EB76
:1003D0000B09ABFB027C48EB0608C01B06FB02CCFA
:1003E0000BFB03CC71EB0C01C1E70B460246414607
:1003F0004846BDE8F08B13B54FF000004FF0000108
:10040000AFF30080BDE81C40704730B505460B4691
:100410002A4613F8014B12F8010B08B1A042F8D09C
:100420001CB1002802D06D1CF1E7284630BD10B584
:10043000431C02E010F8011B71B18107FAD14FF0A3
:10044000013202C88C1A8C4314EAC211F9D0C01AC6
:100450000A0603D0C01E10BDC01A10BD0A0401D088
:10046000801E10BD0902FCD0401E10BD032A40F2C0
:10047000308010F0030C00F0158011F8013BBCF146
:10048000020F624498BF11F801CB00F8013B38BF5E
:1004900011F8013BA2F1040298BF00F801CB38BF6C
:1004A00000F8013B11F0030300F0C480083AC0F0EB
:1004B000088051F8043B083A51F804CBA0E8081032
:1004C000F5E7121D5CBF51F8043B40F8043BAFF365
:1004D0000080D20724BF11F8013B11F801CB48BFBF
:1004E00011F8012B24BF00F8013B00F801CB48BFF5
:1004F00000F8012B70474FF000020429C0F0128071
:1005000010F0030C00F01B80CCF1040CBCF1020FC6
:1005100018BF00F8012BA8BF20F8022BA1EB0C019B
:1005200000F00DB85FEAC17C24BF00F8012B00F891
:10053000012B48BF00F8012B70474FF0000200B5B7
:10054000134694469646203922BFA0E80C50A0E8F6
:100550000C50B1F12001BFF4F7AF090728BFA0E8A4
:100560000C5048BF0CC05DF804EB890028BF40F870
:10057000042B08BF704748BF20F8022B11F0804FB2
:1005800018BF00F8012B7047704770477047000094
:10059000004870475C0500207047704770477047FF
:1005A00038B504460A4600206946AFF300800028AB
:1005B00008BF38BD02460099204600F071F80120BE
:1005C00038BD012000F086B8F8B5AFF300800546CD
:1005D00000200C46102000BF0646A819A0420DD9E5
:1005E000324669460020AFF30080070008BF00F0E4
:1005F00071F80098A04218BF0546C419FFF7C8FF5C
:1006000005600746F01D20F007004619284600F057
:100610000AF8B44208BFF8BDA21B31463868BDE8ED
:10062000F84000F03DB800210160C0E901107047BA
:100630001020704710B5203AC0F00B80B1E8185078
:10064000203AA0E81850B1E81850A0E81850BFF4BC
:10065000F5AF5FEA027C24BFB1E81850A0E818505B
:1006600044BF18C918C0BDE810405FEA827C24BFAF
:1006700051F8043B40F8043B08BF7047D20728BF3D
:1006800031F8023B48BF11F8012B28BF20F8023B8C
:1006900048BF00F8012B7047004870475405002000
:1006A000034640688C46002818BF88423CBF03467A
:1006B0004068F8D318681844884207D00CF103004A
:1006C00020F00700001D411A521A0146081D0A6059
:1006D000FFF7FDBD10B500F039F8BDE8104000F09F
:1006E0002FB870477546FFF7D7FFAE46050069463D
:1006F000534620F00700854618B020B5FFF7A6FD49
:10070000BDE820404FF000064FF000074FF0000812
:100710004FF0000B21F00701AC46ACE8C009ACE893
:10072000C009ACE8C009ACE8C0098D46704710B5F7
:100730000446AFF300802046BDE81040FFF771BDCE
:10074000002801D000F02AB87047000010B5012839
:1007500005D0002103A000F027F8012010BD09A159
:10076000F8E7000053494752544D454D3A204F7524
:1007700074206F662068656170206D656D6F727999
:10078000000000003A2048656170206D656D6F7251
:100790007920636F72727570746564000149182066
:1007A000ABBEFEE72600020070B505460C460A20E7
:1007B00000E06D1C00F011F835B128780028F8D160
:1007C00002E0641C00F009F814B120780028F8D188
:1007D000BDE870400A20AFF3008008B569468DF887
:1007E00000000320ABBE08BD00BFFEE710B5024805
:1007F00000F0E3FA10BD00004400002010B50248EC
:1008000000F0DBFA10BD00006C0000202DE9F84F6D
:1008100005460C4616461F46DDF8288005F5C060E3
:100820002549086000208860C860082008614FF0F2
:10083000000A4FF00009B8F1070F17D2DFE808F0FF
:1008400016040A10050B110000BF4FF02F0A4FF0DD
:1008500001090EE000BF4FF02B0A4FF0020908E03B
:1008600000BF4FF0230A4FF0040902E00020BDE86A
:10087000F88F00BF114880F800A001464C70200A94
:1008800088700846C6704A463946001DFFF7EEFDDF
:1008900009F1040003E00021084A1154401C082813
:1008A000F9DB6B46054A0449054800F086F808B9AB
:1008B0000120DCE70020DAE73C01002034000020C2
:1008C000440000201CB504460020019004F0010003
:1008D00018B141F23F00019001E00F200190052086
:1008E00001AB002246F2400100902046FFF78EFF48
:1008F0001CBD13B582B00C46012002AB002246F2AB
:10090000600100902046FFF781FF1FBD13B582B044
:100910000C46032002AB002246F27A0100902046EA
:10092000FFF774FF1FBD000030B52DED028B83B0C3
:1009300004460D4600EE104AB8EE400AB0EE408A7A
:100940009FED0F0A28EE000ADFED0E0A20EE200AC6
:10095000DFED0D0A80EE201AB0EE418ABCEEC80A27
:100960008DED020A062002AB002246F281010090C2
:100970002846FFF74BFF03B0BDEC028B30BD0000F3
:100980000000004400FF7F470060EA447047704762
:1009900010B5024692F82030012B01D0022B06D16F
:1009A00010684069084314686061002010BD506AF7
:1009B00040F4802050620120F8E7F0B504460D466F
:1009C0001E4694F8207020688368A86800B900E08B
:1009D00000BF012F01D0022F7DD103F0806030B91C
:1009E00003F0006018B903F0805000287ED0C3F3F4
:1009F0000161012088403060A86860B9B5F800C086
:100A0000E86840EA4C5C206800F5C07000EB01101B
:100A1000C0F800C00FE0D5E901C040EACC00D5F82D
:100A20000CC040EA0C00D4F800C00CF5C07C0CEB04
:100A3000011CCCF80000D5F810C0206800F5C0708B
:100A400000EB0110C0F804C0287D01280ED12068F9
:100A500000F5C07000EB0110406840F4807C206815
:100A600000F5C07000EB0110C0F804C0D07900069A
:100A700092F806C040EA0C4092F805C040EA0C200B
:100A800092F804C040EA0C00D4F800C00CF5C07C19
:100A90000CEB011CCCF80C00D078000692F802C0D8
:100AA00040EA0C4092F801C040EA0C2092F800C0E5
:100AB00040EA0C00D4F800C00CF5C07C0CEB011C23
:100AC000CCF80800206800F5C07000EB0110006849
:100AD00040F0010C01E00FE008E0206800F5C07074
:100AE00000EB0110C0F800C00020F0BD606A40F4C7
:100AF000001060620120F8E7606A40F480206062C4
:100B00000120F2E7F0B504460A4694F82050012D82
:100B100001D0022D7ED1424901F50071086840F0F4
:100B200001000860086820F47C5008600868566A74
:100B300040EA06200860107D00F01F06012000FA40
:100B400006F3C8699843C861A1F50071D069C8B9B6
:100B5000D1F80C029843C1F80C02908880B29689B3
:100B600040EA064601F51070576940F83760108872
:100B700080B2168940EA064601F51070576900EB0D
:100B8000C7004660D069012819D1D1F80C0218437A
:100B9000C1F80C02908880B2168840EA064601F53A
:100BA0001070576940F83760908980B2168940EA22
:100BB000064601F51070576900EBC7004660906962
:100BC00028B9D1F804029843C1F8040204E0D1F82E
:100BD00004021843C1F80402106928B9D1F81402BC
:100BE0009843C1F8140204E0D1F814021843C1F884
:100BF0001402106A012804D1D1F81C021843C1F86C
:100C00001C02D1F8000220F00100C1F8000200200F
:100C1000F0BDFFE7606A40F4802060620120F7E7E2
:100C200000640040704770B5044694F82050012DD0
:100C300001D0022D7DD151B92068C06800F00300B9
:100C400080B9606A40F400106062012070BD2068C5
:100C5000006900F0030028B9606A40F40010606287
:100C60000120F3E7206800F5D87000EB0110006860
:100C700000F004009060906840B9206800F5D870DA
:100C800000EB01100068400D106007E0206800F5DF
:100C9000D87000EB01100068C0085060206800F5B3
:100CA000D87000EB0110006800F00200D0602068EE
:100CB00000F5D87000EB0110406800F00F00082824
:100CC00002D30820106108E0206800F5D87000EB1E
:100CD0000110406800F00F001061206800F5D87026
:100CE00000EB0110406800F47F40000A906120682A
:100CF00000F5D87000EB01104068000C50612068CE
:100D000000F5D87000EB011080681870206800F5BD
:100D1000D87000EB0110806800F47F40000A587022
:100D2000206800F5D87000EB0110806800F47F00A7
:100D300000E03CE0000C9870206800F5D87000EBF3
:100D400001108068000ED870206800F5D87000EBA4
:100D50000110C0681871206800F5D87000EB011010
:100D6000C06800F47F40000A5871206800F5D87010
:100D700000EB0110C06800F47F00000C987120683F
:100D800000F5D87000EB0110C068000ED87131B9C1
:100D90002068C06840F020002668F06005E0206808
:100DA000006940F020002668306100204EE7606A4C
:100DB00040F480206062012048E72DE9F05F04469E
:100DC0000025206846692068D0F80490206887686C
:100DD0002068D0F80CA02068D0F810B02068D0F8B7
:100DE000188006F00100002855D007F00100C0B1BE
:100DF00001202168886007F0020018B1204600F049
:100E0000AFFA0EE007F0040010B145F4006508E009
:100E100007F0080010B145F4805502E0204600F0CC
:100E20009EFA07F48070C8B14FF480702168886022
:100E300007F4007018B1204600F094FA0EE007F4B1
:100E4000806010B145F4005508E007F4006010B16F
:100E500045F4804502E0204600F083FA07F4803034
:100E6000C8B14FF480302168886007F4003018B1B1
:100E7000204600F079FA0EE007F4802010B145F426
:100E8000004508E007F4002010B145F4803502E089
:100E9000204600F068FA06F0080038B10AF01000A9
:100EA00020B145F4007510202168C86006F00400E8
:100EB00040B10AF0080028B108202168C860204627
:100EC00000F00CFA06F0020038B12068C06800F0AB
:100ED000030010B1204600F002FA06F0400038B1DD
:100EE0000BF0100020B145F48065102021680861E6
:100EF00006F0200040B10BF0080028B1082021685E
:100F00000861204600F0F9F906F0100038B12068B9
:100F1000006900F0030010B1204600F0EFF906F47C
:100F2000003040B109F0100028B11020216848605D
:100F3000204600F0E4F906F4803040B109F00800E2
:100F400028B1082021684860204600F00EFA06F417
:100F5000004088B309F0040078B306F4807020B133
:100F600008F0010008B145F0010506F4007020B159
:100F700008F0020008B145F0020506F4806020B1D7
:100F800008F0040008B145F0040506F40060A0B1C3
:100F900008F0700088B108F07000402817D006DC17
:100FA00010280BD020280CD0302819D10CE0502864
:100FB00010D0602814D110E01DE019E045F00805BC
:100FC0000FE045F010050CE045F0200509E045F084
:100FD000400506E045F0800503E045F4807500E03B
:100FE00000BF00BF2068806920F070002168886120
:100FF0000420216848602DB1606A28436062204661
:10100000FFF710FEBDE8F09F70B504460CB9012053
:1010100070BD94F8200010B9204600F0AFF82068A9
:10102000006840F001002168086000F01DFB0546E3
:101030000DE000F019FB401B0A2808D9606A40F453
:1010400000306062052084F820000120E0E720687D
:10105000406800F001000028EBD02068006820F014
:1010600002002168086000F0FFFA05460DE000F07C
:10107000FBFA401B0A2808D9606A40F4003060621D
:10108000052084F820000120C2E72068406800F0B5
:1010900002000028EBD1207E012806D120680068DC
:1010A00040F080002168086005E02068006820F0BA
:1010B000800021680860607E012806D120680068F1
:1010C00040F040002168086005E02068006820F0DA
:1010D000400021680860A07E012806D120680068D1
:1010E00040F020002168086005E02068006820F0DA
:1010F000200021680860E07E012806D12068006891
:1011000020F010002168086005E02068006840F0C9
:10111000100021680860207F012806D1206800683F
:1011200040F008002168086005E02068006820F0B1
:10113000080021680860607F012806D120680068E7
:1011400040F004002168086005E02068006820F095
:10115000040021680860D4E90201084321690843BA
:10116000616908436168491E08432168C86100201D
:101170006062012084F82000002049E710B586B0A5
:101180000446142101A8FFF7D8F94E492068884287
:1011900041D14D480068401C4B4908600846006832
:1011A00001280FD100BF002000904848006840F09F
:1011B0000070464908600846006800F00070009022
:1011C00000BF00BF00BF00200090404810380068FA
:1011D00040F008003D49103908600846006800F0FA
:1011E0000800009000BF00BF032001900220029081
:1011F00000200390032004900920059001A93448A1
:1012000000F032F900221146142000F0BBFA14203D
:1012100000F0A4FA54E02F492068884250D100BF62
:10122000002000902948006840F08060274908604D
:101230000846006800F08060009000BF00BF2248B0
:101240000068401C204908600846006801280FD14A
:1012500000BF002000901D48006840F000701B494E
:1012600008600846006800F00070009000BF00BFF2
:1012700000BF0020009015481038006840F00200C0
:101280001249103908600846006800F0020000901A
:1012900000BF00BF60200190022002900020039058
:1012A000032004900920059001A90B4800F0DCF808
:1012B00000221146402000F065FA402000F04EFA6E
:1012C00006B010BD00640040040000204038024019
:1012D000000C02400068004000040240704710B556
:1012E0008AB0044601AB03AA00212046FFF79BFC0D
:1012F00000BF00BF00BF0AB010BD70477047704705
:1013000070B5044694F82000012822D1022084F808
:1013100020002068006820F001002168086000F0CB
:10132000A3F905460DE000F09FF9401B0A2808D9F3
:10133000606A40F400306062052084F820000120DB
:1013400070BD2068406800F001000028EBD16062A9
:10135000F6E7606A40F4002060620120F0E7704721
:1013600070477047704770477047704770B50446C4
:10137000A56D00F079F9064694F83500022808D0EA
:101380008020606500BF002084F8340000BF012089
:1013900070BD2068006820F0160021680860206891
:1013A000406920F0800021684861206C08B9A06C79
:1013B00028B12068006820F00800216808602068D3
:1013C000006820F001002168086010E000F04CF98E
:1013D000801B05280BD920206065032084F8350088
:1013E00000BF002084F8340000BF0320D0E720684D
:1013F000006800F001000028E8D194F85C103F205C
:101400008840A860012084F8350000BF002084F8DF
:10141000340000BF00BFBBE7014691F83500022849
:1014200003D08020486501207047052081F83500F1
:101430000868006820F001000A6810600020F3E7E7
:1014400070B5044600F010F906462546681C10B138
:1014500004480078054400BF00F006F9801BA8424C
:10146000FAD370BD24000020F8B502460B460025D3
:10147000002400200021D6E0012606FA01F51E68AE
:1014800006EA0504AC4274D11E7906F00306012E6B
:1014900004D01E7906F00306022E13D190684F0087
:1014A0000326BE40B0434F00DE68BE40304390602C
:1014B000506801268E40B0431E79C6F300168E4058
:1014C000304350601E7906F00306032E09D0D06821
:1014D0004F000326BE40B0434F009E68BE403043DD
:1014E000D0601E7906F00306022E13D1CF0802F158
:1014F000200656F827004E07F70E0F26BE40B043D1
:101500004F07FF0E1E69BE403043CF0802F1200690
:1015100046F8270010684F000326BE40B0431E79EE
:1015200006F003064F00BE40304310605E6806F4CC
:101530004036002E76D000BF002600963C4E36681E
:1015400046F480463A4F3E603E46366806F4804692
:10155000009600BF00BF374E8F0856F827008E0751
:10156000370F0F26BE40B043334EB24202D10026A1
:1015700024E057E0314EB24201D101261EE0304E48
:10158000B24201D1022619E02E4EB24201D1032609
:1015900014E02D4EB24201D104260FE02B4EB24290
:1015A00001D105260AE02A4EB24201D1062605E005
:1015B000284EB24201D1072600E008268F073F0FD0
:1015C000BE4030431B4E8F0846F82700224E30683D
:1015D000A0435E6806F4801606B120431E4E3060BC
:1015E000361D3068A0435E6806F4001606B120433D
:1015F000194E361D3060184E361F3068A0435E68A5
:1016000006F4003606B12043134E361F3060361FF5
:101610003068A0435E6806F4803606B120430E4E63
:10162000083E3060491C1029FFF426AFF8BD0000C9
:1016300044380240083801400000024000040240E3
:1016400000080240000C024000100240001402405A
:1016500000180240001C0240083C01400AB18161B0
:1016600001E00B0483617047014800687047000087
:101670001C00002003480068034909780844014918
:10168000086070471C0000202400002010B50D48A1
:10169000006840F400700B4908600846006840F498
:1016A000806008600846006840F48070086003208D
:1016B00000F0A6F8002000F007F800F02BF800205A
:1016C00010BD0000003C024070B504460E48007892
:1016D0004FF47A71B1FBF0F00C490968B1FBF0F5F9
:1016E000284600F02FFC08B1012070BD102C07D255
:1016F00000222146501E00F045F80548046001E034
:101700000120F2E70020F0E724000020280000205C
:101710002000002008B500BF002000900E4800689F
:1017200040F480400C4908600846006800F480409E
:10173000009000BF00BF00BF00200090081F00689D
:1017400040F08050091F08600846006800F0805093
:10175000009000BF00BF08BD443802400146084663
:1017600000280DDB00BF00BF00F01F0301229A40DC
:1017700043099B0003F1E023C3F8002100BF00BF31
:1017800000BF70472DE9F05F80460D4616460027E2
:1017900001F0BAFD074639462A46334601F00700F4
:1017A000C0F1070ABAF1040F02D94FF0040A01E0B0
:1017B000C0F1070AD14600F1040ABAF1070F02D2BC
:1017C0004FF0000A01E0A0F1030AD4464FF0010AED
:1017D0000AFA09FAAAF1010A0AEA020A0AFA0CFA52
:1017E0004FF0010B0BFA0CFBABF1010B0BEA030BF7
:1017F0004AEA0B042146404601F08EFDBDE8F09F09
:1018000000BF00F00702064B19684FF6FF031940AE
:10181000044B0B4343EA0221014B196000BF7047A0
:101820000CED00E00000FA0570B504460D460CB959
:10183000012070BD5848006800F00700A84209D296
:1018400055490D700846006800F00700A84201D015
:101850000120EEE7207800F0020002281DD1207858
:1018600000F00400042805D14C48006840F4E05022
:101870004A490860207800F00800082805D1474848
:10188000006840F46040454908604448006820F022
:10189000F000A168084341490860207800F0010089
:1018A000A8B36068012807D13C4808380068C0F335
:1018B0004040B8B90120BCE76068022802D06068E7
:1018C000032807D1354808380068C0F3406048B99C
:1018D0000120AEE7314808380068C0F3400008B97D
:1018E0000120A6E72D48006820F003006168084346
:1018F0002A490860FFF7B8FE064609E0FFF7B4FE84
:10190000801B41F28831884202D9032091E707E029
:101910002248006800F00C006168B0EB810FEDD147
:101920001D48006800F00700A84209D91A490D7047
:101930000846006800F00700A84201D0012078E7BF
:10194000207800F00400042807D11448006820F42F
:10195000E050E168084311490860207800F0080071
:10196000082808D10D48006820F46040216940EA49
:10197000C1000A49086000F03FF808490968C1F34E
:101980000311074A515CC8400649086006480068D0
:10199000FFF79AFE00204CE7003C02400838024066
:1019A0002E34000828000020200000200148006894
:1019B000704700002800002000B5FFF7F7FF04493A
:1019C0000968C1F38221034A515CC84000BD000090
:1019D000083802403E34000800B5FFF7E7FF04492D
:1019E0000968C1F34231034A515CC84000BD0000A0
:1019F000083802403E3400082DE9F0470024002555
:101A00000026A1462548006800F00C0020B10428FB
:101A100005D008283AD105E0DFF8849039E0DFF8F6
:101A2000849036E01D48001F006800F03F041B480A
:101A3000001F006800F4800078B11A481749091F98
:101A40000968C1F38811A0FB0170014622460023FA
:101A50003846FEF763FC05460EE011480F49091FA2
:101A60000968C1F38811A0FB0170014622460023DA
:101A70003846FEF753FC05460848001F0068C0F3CF
:101A80000140401C4600B5FBF6F902E0DFF810907B
:101A900000BF00BF4846BDE8F0870000083802409C
:101AA0000024F400001BB700F8B504460CB901206F
:101AB000F8BD207800F00100002874D0F9480068D3
:101AC00000F00C0004280DD0F648006800F00C006F
:101AD000082813D1F348001F006800F48000B0F517
:101AE000800F0BD1EF4808380068C0F34040002851
:101AF00059D06068002856D10120D9E700BF60683E
:101B0000B0F5803F08D1E7480838006840F48030DD
:101B1000E449083908601EE06068B0F5A02F0DD1D7
:101B2000E0480838006840F48020DE490839086041
:101B30000846006840F4803008600CE0D948083856
:101B4000006820F48030D7490839086008460068EA
:101B500020F48020086000BF606890B1FFF784FD2A
:101B6000054606E0FFF780FD401B642801D90320ED
:101B70009EE7CC4808380068C0F340400028F1D008
:101B800011E0FFF771FD054606E0FFF76DFD401B14
:101B9000642801D903208BE7C24808380068C0F3E5
:101BA00040400028F1D1207800F0020002285FD1E7
:101BB000BC48006800F00C0058B1BA48006800F05A
:101BC0000C0008281CD1B748001F006800F48000F2
:101BD000B0B9B44808380068C0F3400020B1E068EC
:101BE000012801D0012063E7AE480838006820F0E2
:101BF000F800216940EAC100AA490839086037E0C5
:101C0000E06800B30120A8490860FFF72DFD0546F4
:101C100006E0FFF729FD401B022801D9032047E712
:101C2000A04808380068C0F340000028F1D09D4863
:101C30000838006820F0F800216940EAC10099499D
:101C40000839086014E0002097490860FFF70CFD90
:101C5000054606E0FFF708FD401B022801D90320D6
:101C600026E7904808380068C0F340000028F1D10A
:101C7000207800F0080008282CD16069A8B1012064
:101C80008A490860FFF7F0FC054606E0FFF7ECFC28
:101C9000401B022801D903200AE782486C30006803
:101CA000C0F340000028F1D014E000207F49086014
:101CB000FFF7DAFC054606E0FFF7D6FC401B0228DA
:101CC00001D90320F4E677486C300068C0F3400087
:101CD0000028F1D1207800F00400042870D10027FA
:101CE00070483830006800F0805090B900BF002084
:101CF00000906C483830006840F0805069493831B5
:101D000008600846006800F08050009000BF00BFE7
:101D100001276748006800F48070B0B96448006823
:101D200040F4807062490860FFF79EFC054606E0BB
:101D3000FFF79AFC401B022801D90320B8E65C4853
:101D4000006800F480700028F2D000BFA06801286D
:101D500008D154486830006840F0010051496831AA
:101D600008601DE0A06805280DD14E486830006865
:101D700040F004004B49683108600846006840F0B4
:101D8000010008600CE047486830006820F001005E
:101D90004449683108600846006820F00400086083
:101DA00000BFA068A8B1FFF75FFC054609E0FFF798
:101DB0005BFC401B41F28831884202D9032077E660
:101DC00026E0384868300068C0F340000028EED0B4
:101DD00013E0FFF749FC054608E0FFF745FC401B10
:101DE00041F28831884201D9032061E62D486830EC
:101DF0000068C0F340000028EFD1012F07D1294827
:101E00003830006820F0805026493831086000BF23
:101E1000A069002845D02348006800F00C0008287D
:101E20005DD0A069022845D100201F490866FFF750
:101E30001BFC054606E0FFF717FC401B022801D9F2
:101E4000032035E6174808380068C0F340600028D2
:101E5000F1D1D4E907010843616A40EA8111012206
:101E6000A06AC2EB500041EA00412C20005D41EA2B
:101E700000600C49091F086001200B490866FFF744
:101E8000F3FB054606E0FFF7EFFB401B022801D9F4
:101E900003200DE6034808380068C0F340600028BE
:101EA000F1D049E00838024000004742800E474226
:101EB00000700040002021490866FFF7D5FB054669
:101EC00006E0FFF7D1FB401B022801D90320EFE514
:101ED0001B480068C0F340600028F2D12CE0A069E4
:101EE000012800D1E4E51648001D0668A069012814
:101EF00020D006F48001E06981421BD106F03F0149
:101F0000206A814216D147F6C0703040616AB0EB5A
:101F1000811F0FD106F440310122A06AC2EB5000AC
:101F2000B1EB004F06D106F070612C20005DB1EBE3
:101F3000006F01D00120BBE50020B9E50000474259
:101F40000038024070B504462546681EB0F1807F17
:101F500001D301200FE0681E4FF0E02148610F21FE
:101F60004FF0FF3001F0D8F900204FF0E0218861F8
:101F700007200861002070BD704770472DE9F84FB9
:101F80000446206805682068C668206847694FF0E5
:101F90000009CA4605F00F09B9F1000F0AD105F092
:101FA000200038B106F0200020B1204600F06FFF7D
:101FB000BDE8F88FB9F1000F7CD007F0010018B927
:101FC00006F49070002875D005F0010030B106F4D9
:101FD000807018B1606C40F00100606405F004008E
:101FE00030B107F0010018B1606C40F0020060648D
:101FF00005F0020030B107F0010018B1606C40F04C
:102000000400606405F0080048B106F0200010B933
:1020100007F0010018B1606C40F008006064606C6B
:10202000002846D005F0200028B106F0200010B1AD
:10203000204600F02CFF20684069C0F3801A606CD5
:1020400000F0080010B9BAF1000F2DD0204600F0C2
:10205000D8FE2068406900F04000402820D100BF31
:1020600000BF2168143151E8001F21F040002168B1
:10207000143141E80002002AF3D100BFE06B50B1F7
:102080007F48E16B0865E06BFFF7C6F988B1E06B4C
:10209000016D88470DE02046FFF76FFF09E009E07A
:1020A0002046FFF76AFF04E02046FFF766FF0020A6
:1020B00060647DE7206B012878D105F010000028CE
:1020C00074D006F010000028FAD000BF0020009065
:1020D00020680068009020684068009000BF00BF42
:1020E0002068406900F04000402870D1E06B006833
:1020F00040681FFA80F8B8F1000F58D0A08D404515
:1021000055DDA4F82E80E06BC069B0F5807F43D028
:1021100000BF00BF21680C3151E8001F21F480701E
:1021200021680C3141E80002002AF3D100BF00BF52
:1021300000BF2168143151E8001F21F0010021681F
:10214000143141E80002002AF3D100BF00BF00BFF4
:102150002168143151E8001F21F04000216814313A
:1021600041E80002002AF3D100BF202084F8420099
:102170000020206300BF00BF21680C3151E8001F20
:1021800021F0100021680C3141E80002002AF3D14F
:1021900000BFE06BFFF7EAF802206063A08DE28DDC
:1021A000801A81B22046FFF7E7FE0EE052E0A08DD4
:1021B00040450AD1E06BC069B0F5807F05D10220AF
:1021C0006063A18D2046FFF7D7FEF1E6FFE7A08D03
:1021D000E18D401A1FFA80F8E08DD0B3B8F1000FFE
:1021E00037D000BF00BF21680C3151E8001F21F437
:1021F000907021680C3141E80002002AF3D100BF41
:1022000000BF00BF2168143151E8001F21F0010018
:102210002168143141E80002002AF3D100BF2020D8
:1022200084F842000020206300BF00BF21680C3109
:1022300051E8001F21F0100021680C3141E8000234
:10224000002AF3D100BF0220606341462046FFF719
:1022500093FEADE605F0800030B106F0800018B1C5
:10226000204600F0C9FFA3E605F0400030B106F0BB
:10227000400018B1204600F0FAFD99E600BF97E64D
:10228000F12D000810B504460CB9012010BDA0695D
:1022900000B100E000BF94F8410028B9002084F8A4
:1022A0004000204600F02AF8242084F841002068ED
:1022B000C06820F400502168C860204600F066FE27
:1022C0002068006920F49040216808612068406916
:1022D00020F02A00216848612068C06840F400505E
:1022E0002168C86000206064202084F8410084F8E0
:1022F00042000020606300BFC8E7000010B586B050
:102300000446142101A8FEF718F94D4920688842B7
:1023100056D100BF002000904A48006840F01000ED
:10232000484908600846006800F01000009000BFAF
:1023300000BF00BF0020009042481438006840F001
:1023400002004049143908600846006800F00200A5
:10235000009000BF00BF00BF00200090084600684A
:1023600040F0010008600846006800F0010000909D
:1023700000BF00BF80200190022002900020039047
:10238000032004900720059001A92F48FFF76CF85F
:102390004FF400700190022002900020039003206F
:1023A00004900720059001A92848FFF75DF8002256
:1023B00011462520FFF7E6F92520FFF7CFF93CE08D
:1023C00023492068884238D100BF002000901D4872
:1023D000006840F020001B4908600846006800F0D3
:1023E0002000009000BF00BF00BF002000901548F3
:1023F0001438006840F0400012491439086008465B
:10240000006800F04000009000BF00BF4FF484401F
:1024100001900220029000200390032004900820E5
:10242000059001A90B48FFF71FF80022114647202D
:10243000FFF7A8F94720FFF791F906B010BD00009B
:1024400000100140443802400004024000000240F5
:10245000001401400018024070B504460D461646AF
:1024600094F8420020280BD105B10EB9012070BDAF
:102470000020206332462946204600F09DFEF6E704
:102480000220F4E710B504464449206888427DD113
:1024900043490A7843490888411C424B1980424904
:1024A0000A54642301223E49404800F08DF83C481C
:1024B00000786A2869D13B48008809383A49085CA5
:1024C00030383B49087008463A490860354800886A
:1024D00008383549085C303840B23749087031480F
:1024E0000088C01F3049085C303840B2324948701B
:1024F0002C480088801F2C49085C303840B22E4997
:10250000887028480088401F2749085C303840B24E
:102510002949C87023480088001F2349085C3038C7
:1025200040B2254908711F480088C01E1E49085C3A
:10253000303840B2204948711A480088801E1A4934
:10254000085C303840B21C4988710846407901283F
:1025500006D11A4800681A490968084417490860F2
:1025600015488079012806D1144800681449096883
:10257000401A124908600F48006830B164230122F4
:102580000C4801680F4800F01FF800E004E0012249
:1025900003490C48FFF760FF10BD00000010014028
:1025A0003C0000203E00002054010020DC00002000
:1025B0000F0000201800002008000020100000205C
:1025C00014000020940000202DE9F84F04460E4628
:1025D000174699464FF0000A94F84100202850D140
:1025E00006B117B90120BDE8F88F002060642120F2
:1025F00084F84100FFF738F88246A784E784A06892
:10260000B0F5805F04D1206910B90025B04602E022
:1026100035464FF000081EE0534600228021204638
:10262000CDF8009000F018FE20B1202084F8410081
:102630000320D8E745B9B8F80000C0F308002168C6
:10264000486008F1020803E02878216848606D1CA2
:10265000E08C401EE084E08C0028DDD1534600224F
:1026600040212046CDF8009000F0F6FD20B120205A
:1026700084F841000320B6E7202084F841000020C0
:10268000B1E70220AFE7704700BFFEE72DE9F04752
:1026900005460F46164699462846FDF7C8FE1FFA1E
:1026A00080F8FF23424629461F48FFF78DFF01228D
:1026B0001E491D48FFF7D0FE3046FEF7C1FE2FE051
:1026C00039461B48FDF7A1FE04465CB100201949BC
:1026D00008801748FDF7ABFE804641461448FDF7D9
:1026E0000AFF1EE00020134908801148FDF79FFEF5
:1026F000804641460E48FDF7FEFE2846FDF797FE50
:102700001FFA80F8FF23424629460748FFF75CFF7F
:10271000012206490448FFF79FFE3046FEF790FE6F
:10272000CEE700BFBDE8F087940000203C00002009
:10273000540100203E00002070B504460D46012DD6
:1027400045D10122C9032248FEF788FF4FF47A7071
:10275000FEF776FE23461F481FA102681FA0FFF761
:1027600095FF23461B481CA1026820A0FFF78EFF9F
:102770002346184818A1026821A0FFF787FF2346C7
:10278000144815A1026822A0FFF780FF23461148D4
:1027900011A1026822A0FFF779FF23460D480EA180
:1027A000026823A0FFF772FF23460A480AA10268C5
:1027B00023A0FFF76BFF2346064807A1026824A069
:1027C000FFF764FF0022E9030148FEF747FF70BDF1
:1027D00000040240400000204F4B000041542B55A4
:1027E0004152543D372C300D0A00000041542B5704
:1027F0004C524154453D31302C350D0A000000004B
:1028000041542B54504F5745523D330D0A000000A0
:1028100041542B544D4F44453D300D0A00000000FB
:1028200041542B574C54494D453D300D0A00000092
:1028300041542B43574D4F44453D300D0A00000095
:1028400041542B414444523D46462C46460D0A0015
:1028500041542B464C4153483D310D0A00000000C5
:1028600010B50E480E4908600320486000210C484E
:102870008160C1604FF4102101614FF4001141618A
:102880000021017641768176C17601774177FEF7A6
:10289000BBFB08B1FEF77BF810BD000000640040F0
:1028A0004400002010B50E480E490860032048601F
:1028B00000210C488160C1604FF4102101614FF488
:1028C000001141610021017641768176C176017760
:1028D0004177FEF799FB08B1FEF759F810BD0000EB
:1028E000006800406C00002000B587B0142102A8E9
:1028F000FDF723FE00BF002001902E48006840F045
:1029000002002C4908600846006800F002000190AF
:1029100000BF00BF00BF002001900846006840F0E3
:10292000400008600846006800F04000019000BFC9
:1029300000BF00BF002001900846006840F0010081
:1029400008600846006800F00100019000BF00BF69
:1029500000BF002001900846006840F008000860B1
:102960000846006800F00800019000BF00BF00BFEB
:10297000002001900846006840F08000086008468A
:10298000006800F08000019000BF00BF00224FF4FB
:1029900000410948FEF762FE4FF40040029001201A
:1029A000039000200490059002A90348FEF75CFD07
:1029B00007B000BD303802400004024010B50B489B
:1029C0000B4908604FF4E1304860002108488160FD
:1029D000C16001610C21416100218161C161FFF78A
:1029E00051FC08B1FDF7D3FF10BD000000100140FD
:1029F0009400002010B50B480B4908604FF4E130FB
:102A00004860002108488160C16001610C2141617A
:102A100000218161C161FFF735FC08B1FDF7B7FF07
:102A200010BD000000140140DC00002000BFFEE7E4
:102A300000BFFEE770B505460C4635B12CB1A27853
:102A40002188284600F027F808B1002070BDE07802
:102A500000F03DF806460EB90020F7E73046FDF7D6
:102A600007FC6060606808B90020EFE72868E06054
:102A70002C60A888401CA8800120E7E710B508203A
:102A8000FDF7F6FB04460CB9002010BD00202060C5
:102A9000A0802046F9E710B503460C460BB1186834
:102AA00008B9002010BD19680DE00888A04204D1C3
:102AB0008878904201D10846F4E7C86808B1C9682F
:102AC00001E00020EEE70029EFD10020EAE701460F
:102AD000092914D2DFE801F00506090C070A0D0EDA
:102AE000100000BF00BF0120704700BF0220FBE7BD
:102AF00000BF00BF0420F7E74FF48070F4E7002028
:102B0000F2E72DE9F05F0746884691461D46DDF85D
:102B100028A017B90020BDE8F09F1020FDF7A8FB02
:102B200004460CB90020F6E7A4F8008084F802906F
:102B3000E570002060600B9820720C986072002095
:102B4000E06021463846FFF775FF06467EB1BAF1D0
:102B5000000F0CD02846FFF7BAFF8346BBF1000FE9
:102B600004D05A4651466068FDF780FC00BF3046ED
:102B7000D1E77FB5054615B9002004B070BD00242B
:102B800000200390012003AACDE9002004230022A5
:102B900042F2906102902846FFF7B3FF0443012000
:102BA00003AACDE900200623002246F2810102900B
:102BB0002846FFF7A6FF0443012003AACDE9002021
:102BC0000523002246F2400102902846FFF799FFB4
:102BD0000443012003AACDE900200346002246F267
:102BE000600102902846FFF78CFF0443002001217A
:102BF00003AA0323CDE900210290024646F26301B5
:102C00002846FFF77EFF04430020012103AA022388
:102C1000CDE900210290024646F278012846FFF7EE
:102C200070FF04430020012103AA0323CDE9002102
:102C30000290024646F26C012846FFF762FF044309
:102C4000012003AACDE900200423002246F27E01E0
:102C500002902846FFF755FF0443012003AACDE95F
:102C600000200323002246F27A0102902846FFF753
:102C700048FF0443012003AACDE9002006230022D7
:102C800046F2FF0102902846FFF73BFF0443012074
:102C900003AACDE900200223002246F2710102902E
:102CA0002846FFF72EFF0443012003AACDE90020A8
:102CB000052300224FF4C14102902846FFF721FF6F
:102CC0000443012003AACDE900200523024646F271
:102CD000F90102902846FFF714FF0443012003AADC
:102CE000CDE900200523022246F2F9010290284690
:102CF000FFF707FF0443012003AACDE900200223C8
:102D0000024646F2FB0102902846FFF7FAFE044312
:102D10000CB9012031E700202FE77047704710B54C
:102D2000FEF7A8FC10BD000000B593B0302107A845
:102D3000FDF703FC142102A8FDF7FFFB00BF0020F4
:102D400001902448006840F08050224908600846FD
:102D5000006800F08050019000BF00BF00BF00205D
:102D600001901D48006840F480401B4908600846F7
:102D7000006800F48040019000BF00BF0120079070
:102D80000004089002200D9041050E9106210F913C
:102D9000A8211091022111910421129107A8FEF798
:102DA00083FE08B1FDF7F3FD0F200290022003908F
:102DB000002004904FF4A05005904FF480500690EE
:102DC000052102A8FEF730FD08B1FDF7E0FD13B0C4
:102DD00000BD000040380240007000400348006819
:102DE00040F47000014908607047000088ED00E081
:102DF00070B50446A56B0020E8852846FFF7BDF8AE
:102E000070BD00BF00BF02680C3252E8002F22F4F0
:102E1000907102680C3242E80013002BF3D100BF1E
:102E200000BF00BF0268143252E8002F22F00101F7
:102E30000268143242E80013002BF3D100BF016B8B
:102E400001290ED100BF00BF02680C3252E8002FEA
:102E500022F0100102680C3242E80013002BF3D17B
:102E600000BF202180F8421000210163704710B597
:102E700004462068C06820F040002168C860202017
:102E800084F841002046FFF7FEFB002010BDF8B596
:102E900004460025002694F84200222873D1A06839
:102EA000B0F5805F0BD1206948B9A66A20684068F8
:102EB000C0F308003080A06A801CA06214E0A56AFC
:102EC000A068B0F5805F03D0A06828B9206918B960
:102ED00020684068287004E02068406800F07F00A7
:102EE0002870A06A401CA062E08D401E80B2E08580
:102EF000002846D12068C06820F020002168C86002
:102F00002068C06820F480702168C860206840692B
:102F100020F0010021684861202084F84200002050
:102F20006063206B012826D10020206300BF00BF12
:102F300021680C3151E8001F21F0100021680C318C
:102F400041E80002002AF3D100BF2068006800F0C9
:102F5000100010280AD100BF0020009020680068EF
:102F6000009020684068009000BF00BFA18D2046FF
:102F7000FFF702F802E02046FFF784FA0020F8BDD0
:102F800001E00020FBE70220F9E700002DE9F84FFF
:102F900004462068006920F44050E1680843216835
:102FA00008612169A068084361690843E169084331
:102FB00000902068C06849F20C618843009908437A
:102FC0002168C8602068406920F44070A169084306
:102FD0002168486176492068884203D07549206895
:102FE000884203D1FEF7F8FC814602E0FEF7E4FCDC
:102FF0008146E069B0F5004F6CD102206168A0FB0A
:10300000015003461920A9FB007001462A463846A4
:10301000FDF784F96421B0FBF1F04FEA001A0220B9
:103020006168A0FB01510B461920A9FB00712A46DB
:103030003846FDF773F9834602206168A0FB015012
:1030400003461920A9FB00712A463846FDF766F9A8
:103050006421B0FBF1F000EBC00101EB0010ABEB21
:103060008000322101EBC0006421B0FBF1F000F0E0
:10307000F8000AEB400A02206168A0FB01500346F9
:103080001920A9FB007001462A463846FDF746F98B
:10309000834602206168A0FB015003461920A9FB6A
:1030A00000712A463846FDF739F96421B0FBF1F08A
:1030B00000EBC00101EB0010ABEB8000322101EB13
:1030C000C0006421B0FBF1F000F00700504421681B
:1030D00088606AE004206168A0FB01500346192063
:1030E000A9FB007001462A463846FDF717F98246CB
:1030F00004206168A0FB015003461920A9FB007061
:1031000001462A463846FDF709F96421B0FBF1F083
:1031100000EBC00101EB0010AAEB8000322101EBB3
:1031200000106421B0FBF1F000F0F00A04206168A7
:10313000A0FB017003461920A9FB00513A4628461E
:10314000FDF7ECF86421B0FBF1F00AEB001A042063
:103150006168A0FB01510B461920A9FB00712A46AA
:103160003846FDF7DBF8834604206168A0FB015078
:1031700003461920A9FB007001462A463846FDF790
:10318000CDF86421B0FBF1F000EBC00101EB0010C1
:10319000ABEB8000322101EB00106421B0FBF1F0B9
:1031A00000F00F00504421688860BDE8F88F0000EF
:1031B000001001400014014010B5034699629A8541
:1031C000DA8500205864222083F84200186928B16B
:1031D0001868C06840F480701C68E0601868406936
:1031E00040F001001C6860611868C06840F0200071
:1031F0001C68E060002010BD014691F841002128C4
:1032000028D18868B0F5805F0BD1086948B90A6A8F
:103210001088C0F308000B685860086A801C0862B8
:1032200005E00B6A581C086218780B685860C88C57
:10323000401E80B2C88458B90868C06820F0800079
:103240000B68D8600868C06840F040000B68D86020
:10325000002070470220FCE72DE9F84304460D46A4
:1032600017469846089E31E0701C70B3FEF7FCF9D3
:10327000A0EB0800B04200D816B90320BDE8F883DF
:103280002068C06800F00400F8B1802D1ED0402DE9
:103290001CD020680068C0F3C000B0B100BF00209F
:1032A000009020680068009020684068009000BF8F
:1032B00000BF2046FFF7A5FD0820606400BF002086
:1032C00084F8400000BF0120D8E7FFE720680068CD
:1032D0002840A84201D1012000E00020B842C3D01C
:1032E0000020CBE710B50248FEF748FE10BD0000F5
:1032F0009400002010B50248FEF740FE10BD00000B
:10330000DC00002000BFFEE702480068C0F3022096
:10331000704700000CED00E010B5002804DB0A0740
:10332000130E054A135406E00A07140E034A00F070
:103330000F031B1FD45410BD00E400E018ED00E0A3
:1033400000B58BB001200990002007900120089063
:10335000002001900290039004900690059001A92E
:103360000C48FDF7CFFB0B48FDF7CAFF02210948C7
:10337000FDF70EFB0E200A90069001A90648FDF706
:10338000C1FB0548FDF7BCFF02210348FDF700FB28
:103390000BB000BD440000206C00002010B5FEF70B
:1033A00075F9FFF7C1FCFFF79FFAFFF759FAFFF72E
:1033B00079FAFFF703FBFFF71DFB01210020FFF760
:1033C000BBF900224FF400411348FEF747F9FFF71D
:1033D000B7FFFFF753FB114908600846006808B9BA
:1033E000012010BD0D480068FFF7C3FB012108460E
:1033F000FDF77FFA01219620FDF796FA0120FDF7EF
:1034000061FA07E0012106480068FDF77FFA012014
:10341000FEF716F8F6E70000000402400000002066
:10342000100000204FF04070E1EE100A70470000DD
:103430000000000000000102030406070809000064
:1034400000000102030400006834000800000020AE
:1034500044000000C4010008AC340008440000200F
:10346000740F0000E00100080000000000000000F0
:1034700000000000000000000000000088130000B1
:10348000000000000000000010000000010000002B
:103490000024F40000000000000000000000000014
:0C34A00000000000000000002C010000F3
:040000050800018965
:00000001FF
