:020000040800F2
:100000000807002031020008091F0008F51D00083C
:10001000051F0008410700089D220008000000009D
:10002000000000000000000000000000CB210008DC
:10003000B108000800000000C9210008CD21000817
:100040004B0200084B0200084B0200084B0200085C
:100050004B0200084B0200084B0200084B0200084C
:100060004B0200084B0200084B0200084B0200083C
:100070004B0200084B0200084B0200084B0200082C
:100080004B0200084B0200084B0200084B0200081C
:10009000450700084B0200084B0200084B0200080D
:1000A0004B0200084B0200084B0200084B020008FC
:1000B0004B0200084B0200084B0200084B020008EC
:1000C0004B0200084B0200084B0200084B020008DC
:1000D0004B0200084B0200084B0200084B020008CC
:1000E0004B0200084B0200084B0200084B020008BC
:1000F0004B0200084B0200084B0200084B020008AC
:100100004B0200084B0200084B0200084B0200089B
:100110004B0200084B0200084B0200084B0200088B
:100120004B0200084B0200084B0200084B0200087B
:100130004B0200084B0200084B0200084B0200086B
:10014000550700084B0200084B0200084B0200084C
:100150004B0200084B0200084B0200084B0200084B
:100160004B0200084B0200084B0200084B0200083B
:100170004B0200084B0200084B0200080000000080
:100180004B0200084B02000800F002F800F040F8B3
:100190000AA090E8000C82448344AAF10107DA45E2
:1001A00001D100F035F8AFF2090EBAE80F0013F0F4
:1001B000010F18BFFB1A43F0010318470422000087
:1001C00024220000103A24BF78C878C1FAD8520718
:1001D00024BF30C830C144BF04680C6070470000C1
:1001E0000023002400250026103A28BF78C1FBD840
:1001F000520728BF30C148BF0B6070471FB502F0DF
:10020000CDF89DE8030000F08BF91FBD10B510BDBF
:1002100000F014FA1146FFF7F1FF02F08BF800F03E
:1002200032FA03B4FFF7F2FF03BC00F063FA0000F8
:100230000948804709480047FEE7FEE7FEE7FEE77A
:10024000FEE7FEE7FEE7FEE7FEE7FEE704480549B6
:10025000054A064B70470000892200088901000802
:1002600008010020080700200803002008030020E0
:1002700070B5064600F038F9056806F10B0020F06D
:100280000704B4429CBF002070BD2B466A68BAB117
:100290001068A04210D304F1080188423CBF5068A6
:1002A000586007D35168101941601168091B01603B
:1002B00058601460101D70BD13465268002AE7D1C3
:1002C0002146284600F018F90028DED170BD70B52F
:1002D0000446051F00F008F90068002C14BF4468AC
:1002E00070BD002C18BFAC423CBF20466468F8D3F8
:1002F00001680A18AA4218BF456003D12A6805465A
:100300001144016028684119A1421CBF6C6070BD96
:100310006168696021680844286070BD53EA020C76
:1003200000F069802DE9F04B4FF00006002B1FBF55
:10033000B3FA83F503FA05F424FA05F65E4012BF1A
:100340001643B2FA82F502FA05F4C5F120051EBF84
:1003500022FA05FC44EA0C04203556EA044C4FEA24
:10036000144418BF641C4FF000084FF0000990427D
:1003700071EB030C39D3002919BFB1FA81F701FAE7
:1003800007F6B0FA80F700FA07F6C7F120071EBF9C
:1003900020FA07FC46EA0C062037B6FBF4FCA7EB74
:1003A0000507103F07F01F0BCBF120060CFA0BFBE3
:1003B0002CFA06F644BFB3460026202FA4BF5E46A3
:1003C0004FF0000B5BEA060C08BF4FF0010B19EB76
:1003D0000B09ABFB027C48EB0608C01B06FB02CCFA
:1003E0000BFB03CC71EB0C01C1E70B460246414607
:1003F0004846BDE8F08B13B54FF000004FF0000108
:10040000AFF30080BDE81C407047032A40F2308003
:1004100010F0030C00F0158011F8013BBCF1020F45
:10042000624498BF11F801CB00F8013B38BF11F8C6
:10043000013BA2F1040298BF00F801CB38BF00F8DD
:10044000013B11F0030300F0A180083AC0F00880DE
:1004500051F8043B083A51F804CBA0E80810F5E73E
:10046000121D5CBF51F8043B40F8043BAFF3008021
:10047000D20724BF11F8013B11F801CB48BF11F896
:10048000012B24BF00F8013B00F801CB48BF00F866
:10049000012B70474FF0000200B513469446964674
:1004A000203922BFA0E80C50A0E80C50B1F1200187
:1004B000BFF4F7AF090728BFA0E80C5048BF0CC035
:1004C0005DF804EB890028BF40F8042B08BF704793
:1004D00048BF20F8022B11F0804F18BF00F8012B05
:1004E000704770477047704700487047B000002061
:1004F000704770477047704738B504460A46002079
:100500006946AFF30080002808BF38BD0246009955
:10051000204600F071F8012038BD012000F086B8B7
:10052000F8B5AFF30080054600200C46102000BF50
:100530000646A819A0420DD9324669460020AFF3FD
:100540000080070008BF00F071F80098A04218BFB3
:100550000546C419FFF7C8FF05600746F01D20F0E7
:1005600007004619284600F00AF8B44208BFF8BD53
:10057000A21B31463868BDE8F84000F03DB80021C4
:100580000160C0E9011070471020704710B5203A93
:10059000C0F00B80B1E81850203AA0E81850B1E83C
:1005A0001850A0E81850BFF4F5AF5FEA027C24BFF2
:1005B000B1E81850A0E8185044BF18C918C0BDE8E9
:1005C00010405FEA827C24BF51F8043B40F8043BB2
:1005D00008BF7047D20728BF31F8023B48BF11F867
:1005E000012B28BF20F8023B48BF00F8012B7047C1
:1005F00000487047A8000020034640688C46002849
:1006000018BF88423CBF03464068F8D318681844B6
:10061000884207D00CF1030020F00700001D411AAA
:10062000521A0146081D0A60FFF751BE10B500F0CE
:1006300039F8BDE8104000F02FB870477546FFF755
:10064000D7FFAE4605006946534620F007008546B1
:1006500018B020B5FFF7FAFDBDE820404FF00006C6
:100660004FF000074FF000084FF0000B21F007019A
:10067000AC46ACE8C009ACE8C009ACE8C009ACE8DD
:10068000C0098D46704710B50446AFF30080204680
:10069000BDE81040FFF7C5BD002801D000F02AB822
:1006A0007047000010B5012805D0002103A000F01C
:1006B00027F8012010BD09A1F8E70000534947526F
:1006C000544D454D3A204F7574206F662068656122
:1006D00070206D656D6F7279000000003A204865EA
:1006E0006170206D656D6F727920636F72727570C5
:1006F0007465640001491820ABBEFEE726000200C5
:1007000070B505460C460A2000E06D1C00F011F89B
:1007100035B128780028F8D102E0641C00F009F80F
:1007200014B120780028F8D1BDE870400A20AFF35A
:10073000008008B569468DF800000320ABBE08BDF7
:1007400000BFFEE710B5024800F0C4FA10BD00007B
:100750002800002010B5024800F0BCFA10BD0000CF
:10076000500000202DE9F84F06460C4617469846E3
:10077000DDF8289006F5C0602A49086000208860EE
:10078000C860082008613A4621462748006801F001
:100790001AFC8246BAF1000F02D09AF8090010B98B
:1007A0000020BDE8F88F4FF0000B0025B9F1070FCE
:1007B00014D2DFE809F01304090E050A0F0000BF88
:1007C0004FF02F0B01250BE000BF4FF02B0B022544
:1007D00006E000BF4FF0230B042501E00020E0E716
:1007E00000BF124880F800B001464C70200A8870A3
:1007F0000846C7702A464146001DFFF706FE281D21
:1008000003E00021094A1154401C0828F9DB6B461B
:10081000064A0449064800F062F808B90120C0E71A
:100820000020BEE7900000200000002020000020F3
:10083000280000201CB504460020019004F00100AF
:1008400018B141F23F00019001E00F200190052016
:1008500001AB002246F2400100902046FFF782FFE4
:100860001CBD13B582B00C46012002AB002246F23B
:10087000600100902046FFF775FF1FBD13B582B0E1
:100880000C46032002AB002246F27A01009020467B
:10089000FFF768FF1FBD13B582B00C46062002AB00
:1008A000002246F2810100902046FFF75BFF1FBD4A
:1008B0007047704710B5024692F82030012B01D0E6
:1008C000022B06D11068406908431468606100205B
:1008D00010BD506A40F4802050620120F8E7F0B566
:1008E00004460D461E4694F8207020688368A86868
:1008F00000B900E000BF012F01D0022F7CD103F02E
:10090000806030B903F0006018B903F0805000280F
:1009100073D0C3F30161022905D9606A40F4000075
:1009200060620120F0BD012088403060A86860B995
:10093000B5F800C0E86840EA4C5C206800F5C0707B
:1009400000EB0110C0F800C00FE0D5E901C040EA9B
:10095000CC00D5F80CC040EA0C00D4F800C00CF56F
:10096000C07C0CEB011CCCF80000D5F810C020684E
:1009700000F5C07000EB0110C0F804C0287D01280C
:100980000ED1206800F5C07000EB0110406840F403
:10099000807C206800F5C07000EB0110C0F804C036
:1009A000D079000692F806C040EA0C4092F805C0E3
:1009B00040EA0C2C10794CEA000C206800F5C0705D
:1009C00000EB0110C0F80CC0D078000692F802C00D
:1009D00040EA0C4092F801C040EA0C2092F800C0B6
:1009E00040EA0C00D4F800C00CF5C07C0CEB011CF4
:1009F000CCF80800206801E016E00FE000F5C070B8
:100A000000EB0110006840F0010C206800F5C07098
:100A100000EB0110C0F800C0002083E7606A40F4DA
:100A20000010606201207DE7606A40F4802060620F
:100A3000012077E7F0B504460A46216894F8205073
:100A4000012D01D0022D7ED1424901F500710868C7
:100A500040F001000860086820F47C5008600868D5
:100A6000566A40EA06200860107D00F01F0601204B
:100A700000FA06F3C8699843C861A1F50071D0690E
:100A8000C8B9D1F80C029843C1F80C02908880B222
:100A9000968940EA064601F51070576940F83760BC
:100AA000108880B2168940EA064601F51070576931
:100AB00000EBC7004660D069012819D1D1F80C02BB
:100AC0001843C1F80C02908880B2168840EA0646A6
:100AD00001F51070576940F83760908980B2168927
:100AE00040EA064601F51070576900EBC700466002
:100AF000906928B9D1F804029843C1F8040204E0CF
:100B0000D1F804021843C1F80402106928B9D1F8D9
:100B100014029843C1F8140204E0D1F814021843F7
:100B2000C1F81402106A012804D1D1F81C0218433C
:100B3000C1F81C02D1F8000220F00100C1F8000247
:100B40000020F0BDFFE7606A40F480206062012071
:100B5000F7E7000000640040704770B5044694F861
:100B60002050012D01D0022D7DD151B92068C068DF
:100B700000F0030080B9606A40F400106062012058
:100B800070BD2068006900F0030028B9606A40F475
:100B9000001060620120F3E7206800F5D87000EBD8
:100BA0000110006800F004009060906840B920686F
:100BB00000F5D87000EB01100068400D106007E0F0
:100BC000206800F5D87000EB01100068C008506084
:100BD000206800F5D87000EB0110006800F00200FA
:100BE000D060206800F5D87000EB0110406800F07C
:100BF0000F001061206800F5D87000EB011040680C
:100C000000F47F40000A9061206800F5D87000EB86
:100C100001104068000C5061206800F5D87000EBAE
:100C2000011080681870206800F5D87000EB011082
:100C3000806800F47F40000A5870206800F5D87082
:100C400000EB0110806800F47F00000C98702068B1
:100C500000F5D87000EB01108068000ED870206895
:100C600000F5D87000E02FE000EB0110C0681871AB
:100C7000206800F5D87000EB0110C06800F47F40D8
:100C8000000A5871206800F5D87000EB0110C068A8
:100C900000F47F00000C9871206800F5D87000EB1C
:100CA0000110C068000ED87131B92068C06840F0EA
:100CB00020002668F06005E02068006940F0200010
:100CC0002668306100205BE7606A40F48020606243
:100CD000012055E72DE9F05F0446002520684669AC
:100CE0002068D0F80490206887682068D0F80CA0AD
:100CF0002068D0F810B02068D0F8188006F0010005
:100D0000002855D007F00100C0B10120216888609B
:100D100007F0020018B1204600F0F9FA0EE007F0E3
:100D2000040010B145F4006508E007F0080010B1B8
:100D300045F4805502E0204600F0E8FA07F48070A0
:100D4000C8B14FF480702168886007F4007018B152
:100D5000204600F0DEFA0EE007F4806010B145F4A2
:100D6000005508E007F4006010B145F4804502E04A
:100D7000204600F0CDFA07F48030C8B14FF480303F
:100D80002168886007F4003018B1204600F0C3FAEB
:100D90000EE007F4802010B145F4004508E007F4A8
:100DA000002010B145F4803502E0204600F0B2FA90
:100DB00006F0080038B10AF0100020B145F40075C3
:100DC00010202168C86006F0040040B10AF0080055
:100DD00028B108202168C860204600F00DFA06F00E
:100DE000020038B12068C06800F0030010B120464E
:100DF00000F004FA06F0400038B10BF0100020B10A
:100E000045F4806510202168086106F0200040B19B
:100E10000BF0080028B1082021680861204600F086
:100E200043FA06F0100038B12068006900F00300B2
:100E300010B1204600F039FA06F4003040B109F054
:100E4000100028B1102021684860204600F02EFADA
:100E500006F4803040B109F0080028B1082021686C
:100E60004860204600F058FA06F4004088B309F0C4
:100E7000040078B306F4807020B108F0010008B1D6
:100E800045F0010506F4007020B108F0020008B139
:100E900045F0020506F4806020B108F0040008B1B6
:100EA00045F0040506F40060A0B108F0700088B1B8
:100EB00008F07000402817D006DC10280BD020283E
:100EC0000CD0302819D10CE0502810D0602814D153
:100ED00010E01DE019E045F008050FE045F01005B1
:100EE0000CE045F0200509E045F0400506E045F03E
:100EF000800503E045F4807500E000BF00BF206876
:100F0000806920F0700021688861042021684860B1
:100F10002DB1606A284360622046FFF71DFEBDE8E0
:100F2000F09F70B504460CB9012070BD94F8200004
:100F300010B9204600F0B0F82068006840F00100C9
:100F40002168086000F0F8FA05460DE000F0F4FAB8
:100F5000401B0A2808D9606A40F40030606205200E
:100F600084F820000120E0E72068406800F00100DC
:100F70000028EBD02068006820F00200216808609B
:100F800000F0DAFA05460DE000F0D6FA401B0A2818
:100F900008D9606A40F400306062052084F82000BF
:100FA0000120C2E72068406800F002000028EBD171
:100FB000207E012806D12068006840F0800021686A
:100FC000086005E02068006820F080002168086063
:100FD000607E012806D12068006840F0400021684A
:100FE000086005E02068006820F040002168086083
:100FF000A07E012806D12068006840F0200021680A
:10100000086005E02068006820F020002168086082
:10101000E07E012806D12068006820F010002168D9
:10102000086005E02068006840F010002168086052
:10103000207F012806D12068006840F00800216860
:10104000086005E02068006820F00800216808605A
:10105000607F012806D12068006840F00400216804
:10106000086005E02068006820F00400216808603E
:10107000D4E90201084321690843616908436168B2
:10108000491E08432168C86100206062012084F87D
:101090002000002049E7000010B586B00446142166
:1010A00001A8FFF7F7F94E492068884241D14D4821
:1010B0000068401C4B4908600846006801280FD1B1
:1010C00000BF002000904848006840F0007046498A
:1010D00008600846006800F00070009000BF00BF84
:1010E00000BF0020009040481038006840F0080021
:1010F0003D49103908600846006800F0080000907B
:1011000000BF00BF03200190022002900020039046
:10111000032004900920059001A9344800F012F939
:1011200000221146142000F091FA142000F07EFAFB
:1011300054E02F492068884250D100BF0020009021
:101140002948006840F08060274908600846006828
:1011500000F08060009000BF00BF22480068401C83
:10116000204908600846006801280FD100BF002010
:1011700000901D48006840F000701B490860084658
:10118000006800F00070009000BF00BF00BF0020AA
:10119000009015481038006840F0020012491039DC
:1011A00008600846006800F00200009000BF00BF21
:1011B0006020019002200290002003900320049000
:1011C0000920059001A90B4800F0BCF80022114647
:1011D000402000F03BFA402000F028FA06B010BD95
:1011E000006400400400002040380240000C02402F
:1011F000006800400004024070470000F0B58BB06A
:10120000044602AB04AA00212046FFF7A6FC04987E
:10121000A0F28150002840D19DF808008DF8000010
:101220009DF809009DF80A1040EA0120ADF802007F
:101230009DF80B008DF804009DF8000060282AD16D
:101240009DF80420BDF802101648006800F0BBFEAF
:1012500005460026E87807280ED2DFE800F00D04E6
:10126000070A05080B0000BF012606E000BF0226A2
:1012700003E000BF042600E000BF00BF00270DF11F
:101280000E079DF80420BDF8021003AB0548006866
:1012900000F0A3FE00E000BF00E000BF00BF0BB005
:1012A000F0BD00000000002070477047704770B527
:1012B000044694F82000012822D1022084F820005E
:1012C0002068006820F001002168086000F034F90F
:1012D00005460DE000F030F9401B0A2808D9606A85
:1012E00040F400306062052084F82000012070BDC9
:1012F0002068406800F001000028EBD16062F6E74A
:10130000606A40F4002060620120F0E77047704797
:1013100070477047704770477047000070B50446CB
:1013200000F00AF906462546681C10B1044800780A
:10133000054400BF00F000F9801BA842FAD370BD3D
:1013400010000020F8B502460B46002500240020BE
:101350000021D6E0012606FA01F51E6806EA05041A
:10136000AC4274D11E7906F00306012E04D01E791A
:1013700006F00306022E13D190684F000326BE40EC
:10138000B0434F00DE68BE40304390605068012695
:101390008E40B0431E79C6F300168E403043506035
:1013A0001E7906F00306032E09D0D0684F000326ED
:1013B000BE40B0434F009E68BE403043D0601E79AF
:1013C00006F00306022E13D1CF0802F1200656F8CC
:1013D00027004E07F70E0F26BE40B0434F07FF0E03
:1013E0001E69BE403043CF0802F1200646F82700B0
:1013F00010684F000326BE40B0431E7906F0030676
:101400004F00BE40304310605E6806F44036002E48
:1014100076D000BF002600963C4E366846F48046E3
:101420003A4F3E603E46366806F48046009600BF5E
:1014300000BF374E8F0856F827008E07370F0F264C
:10144000BE40B043334EB24202D1002624E057E002
:10145000314EB24201D101261EE0304EB24201D1DE
:10146000022619E02E4EB24201D1032614E02D4E81
:10147000B24201D104260FE02B4EB24201D1052623
:101480000AE02A4EB24201D1062605E0284EB242B9
:1014900001D1072600E008268F073F0FBE403043EA
:1014A0001B4E8F0846F82700224E3068A0435E6826
:1014B00006F4801606B120431E4E3060361D30689B
:1014C000A0435E6806F4001606B12043194E361D8F
:1014D0003060184E361F3068A0435E6806F4003650
:1014E00006B12043134E361F3060361F3068A043CC
:1014F0005E6806F4803606B120430E4E083E30602A
:10150000491C1029FFF426AFF8BD00004438024002
:101510000838014000000240000402400008024078
:10152000000C02400010024000140240001802406B
:10153000001C0240083C0140014800687047000060
:10154000080000200348006803490978084401495D
:1015500008607047080000201000002010B50D48FA
:10156000006840F400700B4908600846006840F4C9
:10157000806008600846006840F4807008600320BE
:1015800000F0A2F8002000F007F800F02BF800208F
:1015900010BD0000003C024070B504460E480078C3
:1015A0004FF47A71B1FBF0F00C490968B1FBF0F52A
:1015B000284600F005FC08B1012070BD102C07D2B0
:1015C00000222146501E00F041F80548046001E069
:1015D0000120F2E70020F0E71000002014000020B6
:1015E0000C00002008B500BF002000900E480068E5
:1015F00040F480400C4908600846006800F48040D0
:10160000009000BF00BF00BF00200090081F0068CE
:1016100040F08050091F08600846006800F08050C4
:10162000009000BF00BF08BD443802400146084694
:10163000002809DB00F01F0301229A4043099B00A8
:1016400003F1E023C3F8002100BF70472DE9F05FEC
:1016500080460D461646002700F022FE0746394612
:101660002A46334601F00700C0F1070ABAF1040F19
:1016700002D94FF0040A01E0C0F1070AD14600F197
:10168000040ABAF1070F02D24FF0000A01E0A0F1FC
:10169000030AD4464FF0010A0AFA09FAAAF1010A2C
:1016A0000AEA020A0AFA0CFA4FF0010B0BFA0CFBD9
:1016B000ABF1010B0BEA030B4AEA0B04214640464F
:1016C00000F0F6FDBDE8F09F00BF00F00702064BFA
:1016D00019684FF6FF031940044B0B4343EA0221FC
:1016E000014B196000BF70470CED00E00000FA05E7
:1016F00070B504460D460CB9012070BD584800680D
:1017000000F00700A84209D255490D70084600684C
:1017100000F00700A84201D00120EEE7207800F099
:10172000020002281DD1207800F00400042805D111
:101730004C48006840F4E0504A490860207800F0C6
:101740000800082805D14748006840F46040454932
:1017500008604448006820F0F000A168084341494F
:101760000860207800F00100A8B36068012807D164
:101770003C4808380068C0F34040B8B90120BCE7D5
:101780006068022802D06068032807D1354808380D
:101790000068C0F3406048B90120AEE7314808381E
:1017A0000068C0F3400008B90120A6E72D48006892
:1017B00020F00300616808432A490860FFF7BCFE77
:1017C000064609E0FFF7B8FE801B41F288318842E7
:1017D00002D9032091E707E02248006800F00C00DE
:1017E0006168B0EB810FEDD11D48006800F0070083
:1017F000A84209D91A490D700846006800F0070090
:10180000A84201D0012078E7207800F004000428E5
:1018100007D11448006820F4E050E16808431149FA
:101820000860207800F00800082808D10D480068FA
:1018300020F46040216940EAC1000A49086000F0D4
:1018400019F808490968C1F30311074A515CC840F7
:101850000649086006480068FFF79EFE00204CE736
:10186000003C024008380240A62300081400002073
:101870000C0000202DE9F047002400250026A14699
:101880002548006800F00C0020B1042805D0082885
:101890003AD105E0DFF8849039E0DFF8849036E053
:1018A0001D48001F006800F03F041B48001F00682F
:1018B00000F4800078B11A481749091F0968C1F37C
:1018C0008811A0FB01700146224600233846FEF72E
:1018D00025FD05460EE011480F49091F0968C1F3AF
:1018E0008811A0FB01700146224600233846FEF70E
:1018F00015FD05460848001F0068C0F30140401C64
:101900004600B5FBF6F902E0DFF8109000BF00BF1B
:101910004846BDE8F0870000083802400024F40083
:10192000001BB700F8B504460CB90120F8BD2078BB
:1019300000F00100002874D0F948006800F00C00A5
:1019400004280DD0F648006800F00C00082813D1D8
:10195000F348001F006800F48000B0F5800F0BD141
:10196000EF4808380068C0F34040002859D060684C
:10197000002856D10120D9E700BF6068B0F5803F4C
:1019800008D1E7480838006840F48030E449083955
:1019900008601EE06068B0F5A02F0DD1E04808385F
:1019A000006840F48020DE49083908600846006875
:1019B00040F4803008600CE0D9480838006820F412
:1019C0008030D749083908600846006820F4802034
:1019D000086000BF606890B1FFF7AEFD054606E005
:1019E000FFF7AAFD401B642801D903209EE7CC48DD
:1019F00008380068C0F340400028F1D011E0FFF73C
:101A00009BFD054606E0FFF797FD401B642801D9C2
:101A100003208BE7C24808380068C0F34040002824
:101A2000F1D1207800F0020002285FD1BC480068A4
:101A300000F00C0058B1BA48006800F00C0008280B
:101A40001CD1B748001F006800F48000B0B9B4484A
:101A500008380068C0F3400020B1E068012801D0D8
:101A6000012063E7AE480838006820F0F8002169DB
:101A700040EAC100AA490839086037E0E06800B3CD
:101A80000120A8490860FFF757FD054606E0FFF76B
:101A900053FD401B022801D9032047E7A04808381E
:101AA0000068C0F340000028F1D09D480838006865
:101AB00020F0F800216940EAC1009949083908601E
:101AC00014E0002097490860FFF736FD054606E060
:101AD000FFF732FD401B022801D9032026E790487A
:101AE00008380068C0F340000028F1D1207800F0E9
:101AF000080008282CD16069A8B101208A49086033
:101B0000FFF71AFD054606E0FFF716FD401B022809
:101B100001D903200AE782486C300068C0F3400016
:101B20000028F1D014E000207F490860FFF704FD91
:101B3000054606E0FFF700FD401B022801D90320FF
:101B4000F4E677486C300068C0F340000028F1D11B
:101B5000207800F00400042870D100277048383045
:101B6000006800F0805090B900BF002000906C48E1
:101B70003830006840F080506949383108600846C4
:101B8000006800F08050009000BF00BF0127674848
:101B9000006800F48070B0B96448006840F4807058
:101BA00062490860FFF7C8FC054606E0FFF7C4FC81
:101BB000401B022801D90320B8E65C48006800F405
:101BC00080700028F2D000BFA068012808D15448D6
:101BD0006830006840F001005149683108601DE03C
:101BE000A06805280DD14E486830006840F0040018
:101BF0004B49683108600846006840F00100086001
:101C00000CE047486830006820F001004449683122
:101C100008600846006820F00400086000BFA06863
:101C2000A8B1FFF789FC054609E0FFF785FC401BDA
:101C300041F28831884202D9032077E626E038480D
:101C400068300068C0F340000028EED013E0FFF7D2
:101C500073FC054608E0FFF76FFC401B41F288313A
:101C6000884201D9032061E62D4868300068C0F33E
:101C700040000028EFD1012F07D1294838300068F3
:101C800020F0805026493831086000BFA069002844
:101C900045D02348006800F00C0008285DD0A069FA
:101CA000022845D100201F490866FFF745FC05467C
:101CB00006E0FFF741FC401B022801D9032035E66E
:101CC000174808380068C0F340600028F1D1D4E913
:101CD00007010843616A40EA81110122A06AC2EB50
:101CE000500041EA00412C20005D41EA00600C49AF
:101CF000091F086001200B490866FFF71DFC054617
:101D000006E0FFF719FC401B022801D903200DE66D
:101D1000034808380068C0F340600028F1D049E06B
:101D20000838024000004742800E474200700040E1
:101D3000002021490866FFF7FFFB054606E0FFF794
:101D4000FBFB401B022801D90320EFE51B4800687C
:101D5000C0F340600028F2D12CE0A069012800D136
:101D6000E4E51648001D0668A069012820D006F4A5
:101D70008001E06981421BD106F03F01206A814267
:101D800016D147F6C0703040616AB0EB811F0FD1A9
:101D900006F440310122A06AC2EB5000B1EB004FC3
:101DA00006D106F070612C20005DB1EB006F01D010
:101DB0000120BBE50020B9E50000474200380240A1
:101DC00070B504462546681EB0F1807F01D301201E
:101DD0000FE0681E4FF0E02148610F214FF0FF3007
:101DE00000F066FA00204FF0E021886107200861CA
:101DF000002070BD00BFFEE710B50E480E49086018
:101E00000320486000210C488160C1604FF410211C
:101E100001614FF400114161002101764176817624
:101E2000C17601774177FFF77CF808B1FEF741FDF5
:101E300010BD0000006400402800002010B50E48CE
:101E40000E4908600320486000210C488160C16091
:101E50004FF4102101614FF400114161002101761E
:101E600041768176C17601774177FFF75AF808B15C
:101E7000FEF71FFD10BD000000680040500000206C
:101E800008B500BF002000901D48006840F0020027
:101E90001B4908600846006800F00200009000BF7F
:101EA00000BF00BF002000900846006840F001001D
:101EB00008600846006800F00100009000BF00BF05
:101EC00000BF002000900846006840F0080008604D
:101ED0000846006800F00800009000BF00BF00BF87
:101EE000002000900846006840F080000860084626
:101EF000006800F08000009000BF00BF08BD000037
:101F00003038024000BFFEE700BFFEE770B505466F
:101F10000C4635B12CB1A2782188284600F027F86C
:101F200008B1002070BDE07800F033F806460EB925
:101F30000020F7E73046FEF79BF96060606808B95B
:101F40000020EFE72868E0602C60A888401CA8808B
:101F50000120E7E710B50820FEF78AF904460CB91E
:101F6000002010BD00202060A0802046F9E710B5B9
:101F700003460C46196808E00888A04204D1887816
:101F8000904201D1084610BDC9680029F4D1002053
:101F9000F9E70146092914D2DFE801F00506090C2A
:101FA000070A0D0E100000BF00BF0120704700BFE0
:101FB0000220FBE700BF00BF0420F7E74FF480706A
:101FC000F4E70020F2E770B504460D4616463246A7
:101FD00029462046FFF7CBFF70BD2DE9F0470746A5
:101FE000884691461E464A4641463846FFF7BFFF9F
:101FF000044614B1607A00B116B90020BDE8F0873C
:10200000E078FFF7C6FF05460DB90020F6E72A463F
:1020100031466068FEF7F9F90120EFE72DE9F05F3E
:1020200080460D4616461F46DDE90BABDDF82890CD
:102030001020FEF71DF904462580A670E770C4F84D
:10204000049084F808A084F809B00020E0602146DC
:102050004046FFF75BFFBDE8F09F7FB505460024D3
:1020600000200390012003AACDE9002005230022CF
:1020700046F2400102902846FFF7D0FF04430120BA
:1020800003AACDE900200346002246F26001029037
:102090002846FFF7C3FF04430020012103AA0323BE
:1020A000CDE900210290024646F263012846FFF77F
:1020B000B5FF04430020012103AA0223CDE900213A
:1020C0000290024646F278012846FFF7A7FF044334
:1020D0000020012103AA0323CDE90021029002463A
:1020E00046F26C012846FFF799FF0443012003AA3A
:1020F000CDE900200423002246F27E01029028460A
:10210000FFF78CFF0443012003AACDE9002003233D
:10211000002246F27A0102902846FFF77FFF04432F
:10212000012003AACDE900200623002246F2FF0188
:1021300002902846FFF772FF0443012003AACDE96D
:1021400000200223002246F2710102902846FFF788
:1021500065FF0443012003AACDE9002005230022E6
:102160004FF4C14102902846FFF758FF0443012075
:1021700003AACDE900200523024646F2F9010290A8
:102180002846FFF74BFF0443012003AACDE90020B6
:102190000523022246F2F90102902846FFF73EFF8E
:1021A0000443012003AACDE900200223024646F29F
:1021B000FB0102902846FFF731FF044314B90120C8
:1021C00004B070BD0020FBE77047704710B5FFF703
:1021D000B9F910BD00B593B0302107A8FEF75AF940
:1021E000142102A8FEF756F900BF002001902448F0
:1021F000006840F08050224908600846006800F0FE
:102200008050019000BF00BF00BF002001901D481A
:10221000006840F480401B4908600846006800F4EC
:102220008040019000BF00BF01200790000408908B
:1022300002200D9041050E9106210F91A8211091C9
:10224000022111910421129107A8FFF76BFB08B13D
:10225000FEF72FFB0F200290022003900020049035
:102260004FF4A05005904FF480500690052102A82D
:10227000FFF73EFA08B1FEF71CFB13B000BD0000EB
:1022800040380240007000400348006840F470008D
:10229000014908607047000088ED00E000BFFEE7DC
:1022A00002480068C0F30220704700000CED00E017
:1022B00010B5002804DB0A07130E054A135406E084
:1022C0000A07140E034A00F00F031B1FD45410BD5D
:1022D00000E400E018ED00E000B58BB001200990AB
:1022E00000200790012008900020019002900390A8
:1022F00004900690059001A90C48FEF79BFB0B4843
:10230000FEF7D5FF02210948FEF7D4FA0E200A9005
:10231000069001A90648FEF78DFB0548FEF7C7FFAA
:1023200002210348FEF7C6FA0BB000BD28000020CA
:102330005000002010B5FFF711F9FFF74BFFFFF732
:102340009FFDFFF759FDFFF779FDFFF7C5FFFFF789
:1023500001FE114908600846006808B9012010BD57
:102360000D480068FFF779FE0120FEF763FA0121AE
:102370000846FEF776FA02210320FEF772FA0121E1
:102380009620FEF788FA06E001210020FEF776FA93
:10239000C820FEF7C3FFF7E7000000204FF04070B1
:1023A000E1EE100A7047000000000000000001028A
:1023B00003040607080900000000010203040000EE
:1023C000E02300080000002028000000C4010008ED
:1023D0000824000828000020E0060000E0010008B2
:1023E00000000000000000000000000010000000DD
:1023F000010000000024F4000000000000000000C4
:082400000000000000000000D4
:040000050800018965
:00000001FF
