:020000040800F2
:1000000000000220C1180008F5170008F7170008C3
:10001000F9170008FB170008FD1700080000000092
:10002000000000000000000000000000FF170008B2
:100030000118000800000000031800080518000857
:1000400011190008111900081119000811190008E8
:1000500011190008111900081119000811190008D8
:1000600011190008111900081119000811190008C8
:1000700011190008111900081119000811190008B8
:1000800011190008111900081119000811190008A8
:100090000D1800081119000811190008111900089D
:1000A0001119000811190008111900081119000888
:1000B0001119000811190008111900081119000878
:1000C0001119000811190008111900081119000868
:1000D0001119000811190008111900081119000858
:1000E0001119000811190008111900081119000848
:1000F0001119000811190008111900081119000838
:100100001119000811190008111900081119000827
:100110001119000811190008111900081119000817
:100120001119000811190008111900081119000807
:1001300011190008111900081119000811190008F7
:100140001D180008111900081119000811190008DC
:1001500011190008111900081119000811190008D7
:1001600011190008111900081119000811190008C7
:1001700011190008111900081119000800000000E9
:08018000111900081119000813
:1001880053B94AB9002908BF00281CBF4FF0FF31F6
:100198004FF0FF3000F00CB8ADF1080C6DE904CE5B
:1001A80001F07EFEDDF804E0DDE9022304B07047CB
:1001B800704700BF844641EA000313F003036DD182
:1001C800403A41D351F8043B40F8043B51F8043B12
:1001D80040F8043B51F8043B40F8043B51F8043B19
:1001E80040F8043B51F8043B40F8043B51F8043B09
:1001F80040F8043B51F8043B40F8043B51F8043BF9
:1002080040F8043B51F8043B40F8043B51F8043BE8
:1002180040F8043B51F8043B40F8043B51F8043BD8
:1002280040F8043B51F8043B40F8043B51F8043BC8
:1002380040F8043B51F8043B40F8043B51F8043BB8
:1002480040F8043B403ABDD2303211D351F8043B58
:1002580040F8043B51F8043B40F8043B51F8043B98
:1002680040F8043B51F8043B40F8043B103AEDD207
:100278000C3205D351F8043B40F8043B043AF9D258
:10028800043208D0D2071CBF11F8013B00F8013B2B
:1002980001D30B8803806046704700BF082A13D338
:1002A8008B078DD010F003038AD0C3F10403D21A50
:1002B800DB071CBF11F8013B00F8013B80D331F884
:1002C800023B20F8023B7BE7043AD9D3013A11F804
:1002D800013B00F8013BF9D20B7803704B7843706F
:1002E8008B788370604670470348044B834202D082
:1002F800034B03B1184770474C0500204C050020FC
:10030800000000000548064B1B1AD90F01EBA3019A
:10031800491002D0034B03B1184770474C05002021
:100328004C0500200000000010B5064C237843B9A6
:10033800FFF7DAFF044B13B10448AFF30080012341
:10034800237010BD4C05002000000000C42B0008DD
:1003580008B5054B1BB105490548AFF30080BDE85A
:100368000840FFF7CFBF00BF000000005005002085
:10037800C42B000810B504460E4B1A784FF47A7354
:10038800B3FBF2F30C4A1068B0FBF3F000F092FCF8
:1003980068B90F2C01D901200AE0002221464FF04C
:1003A800FF3000F069FC054B1C60002000E00120D4
:1003B80010BD00BF0000002008000020040000203D
:1003C80008B50B4B1A6842F400721A601A6842F4B6
:1003D80080621A601A6842F480721A60032000F082
:1003E80039FC0020FFF7C6FF01F0E4F9002008BD42
:1003F800003C0240034A1168034B1B780B4413600E
:10040800704700BF6805002000000020014B1868F5
:10041800704700BF6805002038B50446FFF7F6FFAF
:100428000546B4F1FF3F02D0044B1B781C44FFF78C
:10043800EDFF401BA042FAD338BD00BF00000020EA
:10044800002800F0A18038B5044690F82030D3B1D8
:100458002268136843F001031360FFF7D7FF0546CE
:1004680023685A6812F0010F10D1FFF7CFFF401B25
:100478000A28F5D9636A43F400336362052384F8D4
:100488002030012038BD01F05FF8E1E71A6822F05A
:1004980002021A60FFF7BAFF054623685A6812F08D
:1004A800020F0DD0FFF7B2FF401B0A28F5D9636A87
:1004B80043F400336362052384F820300120E1E728
:1004C800227E012A3DD01A6822F080021A60637EDB
:1004D800012B3BD02268136823F040031360A37EEE
:1004E800012B39D02268136823F020031360E37EC0
:1004F800012B37D02268136843F010031360237F61
:10050800012B35D02268136823F008031360637F3A
:10051800012B33D02268136823F004031360A36807
:10052800E268134322691343626913436268013A1C
:1005380021681343CB6100206062012384F82030D6
:10054800A0E71A6842F080021A60C0E722681368C0
:1005580043F040031360C2E72268136843F02003A6
:100568001360C4E72268136823F010031360C6E71A
:100578002268136843F008031360C8E72268136809
:1005880043F004031360CAE70120704790F8203055
:10059800013BDBB2012B05D9436A43F48023436254
:1005A8000120704730B5464BD3F8002242F00102D3
:1005B800C3F80022D3F8002222F47C52C3F80022A8
:1005C800D3F80022486A42EA0022C3F800224A69A6
:1005D80002F01F02012000FA02F2D3F81C026FEAAF
:1005E800020C20EA0200C3F81C02CB69C3B9344BE1
:1005F800D3F80C020CEA0000C3F80C028C88486996
:10060800CD6844EA0544483043F830408C6808888F
:1006180040EA04404C6904F1480E03EBCE035860ED
:10062800CB69012B1ED08B69002B33D12448D0F81D
:1006380004320CEA0303C0F804320B698BBB204870
:10064800D0F814320CEA0303C0F814320B6A012BF9
:100658002ED01B4AD2F8003223F00103C2F8003230
:10066800002030BD164BD3F80C021043C3F80C021F
:100678008C8848690D6844EA0544483043F830409E
:1006880088894C698D6840EA0540483403EBC40307
:100698005860C8E70A48D0F804321343C0F8043257
:1006A800CBE70748D0F814321343C0F81432CDE72B
:1006B8000349D1F81C321343C1F81C32C9E700BF03
:1006C8000064004070B5044690F82050EDB2012D4A
:1006D80006D0436A43F4002343620125284670BDCF
:1006E800022380F820300268136823F001031360A6
:1006F800FFF78CFE064623685B6813F0010F0CD0E9
:10070800FFF784FE831B0A2BF5D9636A43F4003391
:100718006362052384F82030E0E700256562DDE7A1
:1007280030B590F820C00468A4680CF1FF3C5FFA6B
:100738008CFCBCF1010F6BD814F0E05F62D0C4F3FD
:10074800016CBCF1020F05D9436A43F4000343620C
:10075800012062E0012404FA0CF41C608B68002B71
:100768003DD10D68CB68046843EA45550CF1180380
:100778001B01E55003680C690CF1180E03EB0E130E
:100788005C600B7D012B35D0D17993791B0443EA4A
:100798000163517943EA012314790168234301EB8A
:1007A8000C11C1F88C31D17893781B0443EA0163AA
:1007B800517843EA0123117802680B4302EB0C12CB
:1007C800C2F8883102680CF1180C4FEA0C1C52F878
:1007D8000C3043F0010342F80C3000201DE04C6857
:1007E80043EAC403CC6823430CF1180424010568C8
:1007F8002B51BFE7036803EB0E13596841F480716E
:100808005960C1E7436A43F400134362012004E0DE
:10081800436A43F480234362012030BD90F820C02E
:100828000CF1FF3C5FFA8CFCBCF1010F00F29580E3
:1008380030B451B90468E46814F0030F10D1436A66
:1008480043F400134362012077E00468246914F03C
:10085800030F05D1436A43F40013436201206CE09F
:1008680001F11B04240105682C5904F00404946068
:10087800002C64D101F11B04240105682C59640D76
:100888001460046801F11B0C4FEA0C1C54F80C406E
:1008980004F00204D46004686444646804F00F043B
:1008A8001461046864446468C4F3072494610468A8
:1008B80064446468240C5461026802EB0112D2F8A3
:1008C800B8211A70026802EB0112D2F8B821C2F3FB
:1008D80007225A70026802EB0112D2F8B821C2F35B
:1008E80007429A70026802EB0112D2F8B821120E80
:1008F800DA70026802EB0112D2F8BC211A710268A0
:1009080002EB0112D2F8BC21C2F307225A71026825
:1009180002EB0112D2F8BC21C2F307429A710268B5
:1009280002EB0112D2F8BC21120EDA7179B9026811
:10093800D36843F02003D360002030BC704701F136
:100948001B04240105682C59E408546099E70268DF
:10095800136943F020031361EEE7436A43F48023ED
:1009680043620120704790F82030013BDBB2012B35
:1009780005D9436A43F48023436201207047026823
:1009880053690B43536100207047704770477047A5
:100998007047704770477047704770477047704797
:1009A80070472DE9F84F054603685C69D3F8048061
:1009B8009F68D3F80CB0D3F810A0D3F8189014F0AF
:1009C80001063BD017F0010616D001229A6017F0F5
:1009D800020F08D117F0040F0CD117F0080606D043
:1009E8004FF4805608E0FFF7D0FF002604E0FFF739
:1009F800CFFF01E04FF4006617F4807F0DD02B681D
:100A08004FF480729A6017F4007F40F0868017F4E4
:100A1800806F00F0868046F4005617F4803F0DD0B2
:100A28002B684FF480329A6017F4003F40F08380BF
:100A380017F4802F00F0838046F4004614F0080F66
:100A480007D01BF0100F04D046F400762B68102254
:100A5800DA6014F0040F02D01BF0080F79D114F0FB
:100A6800020F04D02B68DB6813F0030F78D114F061
:100A7800400F07D01AF0100F04D046F480662B6898
:100A880010221A6114F0200F02D01AF0080F6BD14F
:100A980014F0100F04D02B681B6913F0030F6AD1F0
:100AA80014F4003F02D018F0100F68D114F4803FFE
:100AB80002D018F0080F69D114F4004F7AD018F05A
:100AC800040F74D014F4807F04D019F0010F01D002
:100AD80046F0010614F4007F04D019F0020F01D08B
:100AE80046F0020614F4806F04D019F0040F01D008
:100AF80046F0040614F4006F59D019F0700956D066
:100B0800B9F1400F65D058D8B9F1200F5ED0B9F1CE
:100B1800300F42D146F0200644E02846FFF736FF62
:100B28007BE717F4006F02D046F4804675E7284645
:100B3800FFF72FFF71E72846FFF729FF7EE717F435
:100B4800002F02D046F4803678E72846FFF722FFC8
:100B580074E72B680822DA602846FFF71CFF7EE757
:100B6800284600F0D3FE82E72B6808221A6128463F
:100B7800FFF713FF8CE72846FFF70EFF90E72B6877
:100B880010225A602846FFF709FF8FE72B680822D2
:100B98005A602846FFF703FF8EE7B9F1100F01D11D
:100BA80046F008062A68936923F0700393612B685E
:100BB80004225A609EB9BDE8F88FB9F1500F0BD0E6
:100BC800B9F1600FEED146F48076EBE746F01006F7
:100BD800E8E746F04006E5E746F08006E2E76B6A9C
:100BE80033436B622846FFF7DBFEE4E7002808DBA7
:100BF8000901C9B200F1604000F5614080F80013B6
:100C0800704700F00F000901C9B2014B1954704731
:100C180014ED00E000B500F00700C0F1070CBCF1CE
:100C2800040F28BF4FF0040C031D062B0FD9C31E59
:100C38004FF0FF3E0EFA0CF021EA000199400EFA3F
:100C480003FE22EA0E0241EA02005DF804FB0023DB
:100C5800EEE70000074AD36823F4E0631B041B0C8B
:100C6800000200F4E060034343F0BF6343F4003341
:100C7800D360704700ED00E010B50446054BD86816
:100C8800C0F30220FFF7C6FF01462046FFF7AEFF7C
:100C980010BD00BF00ED00E0002807DB00F01F02D8
:100CA800400901239340024A42F82030704700BFB0
:100CB80000E100E00138B0F1807F0BD24FF0E02373
:100CC8005861054AF02182F8231000209861072214
:100CD8001A6170470120704700ED00E000230F2BD8
:100CE80000F2E98070B582B065E085684FEA430E8E
:100CF800032404FA0EF425EA0405CC6804FA0EF479
:100D08002C438460446824EA02044A68C2F300124F
:100D18009A40224342605CE0DC08083450F8242002
:100D280003F00705AD004FF00F0E0EFA05FE22EA9C
:100D38000E0E0A69AA4042EA0E0240F824205CE03E
:100D4800072200E0002202FA0EF22A4302345A4D2A
:100D580045F82420594A94686FEA0C0224EA0C05E5
:100D68004E6816F4801F01D04CEA0405534CA56068
:100D7800E46802EA04054E6816F4001F01D04CEA44
:100D880004054E4CE560646802EA04054E6816F4F2
:100D9800003F01D04CEA0405484C656024682240B5
:100DA8004D6815F4803F01D04CEA0402434C2260A0
:100DB80001330F2B7DD801229A400C6804EA020CFB
:100DC80032EA0404F4D14C6804F00304013C012C19
:100DD8008BD94A6802F00302032A09D0C4685D006F
:100DE8000322AA4024EA02048A68AA402243C26075
:100DF8004A6802F00302022A8ED004684FEA430EC2
:100E0800032202FA0EF224EA02044A6802F00302FC
:100E180002FA0EF2224302604A6812F4403FC7D039
:100E280000220192264A546C44F480445464526C63
:100E380002F480420192019A9C08A51C1E4A52F8AD
:100E4800255003F0030E4FEA8E0E0F2202FA0EF21F
:100E580025EA02051B4A90423FF474AF02F580620E
:100E680090421AD002F58062904218D002F5806252
:100E7800904216D002F58062904214D002F580624A
:100E8800904212D002F58062904210D002F5806242
:100E980090423FF455AF082255E7012253E702225A
:100EA80051E703224FE704224DE705224BE70622CC
:100EB80049E702B070BD704700380140003C01406E
:100EC8000038024000000240002800F0E08170B5C0
:100ED80082B00446036813F0010F3BD09F4B9B6818
:100EE80003F00C03042B2CD09C4B9B6803F00C03E1
:100EF800082B21D06368B3F5803F4FD0B3F5A02FFE
:100F080052D0964B1A6822F480321A601A6822F47A
:100F180080221A606368002B50D0FFF777FA0546E5
:100F28008E4B1B6813F4003F14D1FFF76FFA401B78
:100F38006428F5D90320B1E1884B5B6813F4800F6E
:100F4800D8D0864B1B6813F4003F03D06368002B8E
:100F580000F09F81236813F0020F54D07F4B9B68E9
:100F680013F00C0F3ED07D4B9B6803F00C03082B4D
:100F780033D0E368002B68D0794B01221A60FFF761
:100F880045FA0546754B1B6813F0020F54D1FFF75D
:100F98003DFA401B0228F5D903207FE16F4A136808
:100FA80043F480331360B5E76C4B1A6842F480222F
:100FB8001A601A6842F480321A60ABE7FFF726FA23
:100FC8000546664B1B6813F4003FC3D0FFF71EFAB3
:100FD800401B6428F5D9032060E1604B5B6813F47B
:100FE800800FC6D15D4B1B6813F0020F03D0E36876
:100FF800012B40F05081594A136823F0F803216906
:1010080043EAC1031360236813F0080F42D06369F1
:101018006BB3534B0122C3F8802EFFF7F7F905464F
:101028004E4B5B6F13F0020F34D1FFF7EFF9401B03
:101038000228F5D9032031E1484A136823F0F80360
:10104800216943EAC1031360DDE7454B00221A60BA
:10105800FFF7DCF90546414B1B6813F0020FD2D0AD
:10106800FFF7D4F9401B0228F5D9032016E13C4BC1
:101078000022C3F8802EFFF7C9F90546374B5B6F8E
:1010880013F0020F06D0FFF7C1F9401B0228F5D96B
:10109800032003E1236813F0040F77D02F4B1B6C58
:1010A80013F0805F33D1002301932C4B1A6C42F06C
:1010B80080521A641B6C03F080530193019B012535
:1010C800284B1B6813F4807F23D0A368012B34D0EE
:1010D800052B38D0214B1A6F22F001021A671A6FBC
:1010E80022F004021A67A368002B3DD0FFF78EF99F
:1010F80006461A4B1B6F13F0020F46D1FFF786F90D
:10110800801B41F288339842F3D90320C6E00025BA
:10111800D6E7144A136843F480731360FFF776F92F
:101128000646104B1B6813F4807FCED1FFF76EF98B
:10113800801B0228F5D90320B0E0084A136F43F05A
:1011480001031367CFE7054B1A6F42F004021A67D1
:101158001A6F42F001021A67C5E700BF0038024063
:101168000000474200700040FFF750F90646524B16
:101178001B6F13F0020F08D0FFF748F9801B41F2EC
:1011880088339842F3D9032088E0EDB9A369002B8E
:1011980000F08380484A926802F00C02082A51D075
:1011A800022B17D0454B00221A66FFF72FF9044689
:1011B800414B1B6813F0007F42D0FFF727F9001B53
:1011C8000228F5D9032069E03B4A136C23F08053C9
:1011D8001364DBE7394B00221A66FFF717F9054657
:1011E800354B1B6813F0007F06D0FFF70FF9401B43
:1011F8000228F5D9032051E0E369226A1343626AA1
:1012080043EA8213A26A5208013A43EA0243E26AB5
:1012180043EA0263284A5360284B01221A66FFF703
:10122800F5F80446244B1B6813F0007F06D1FFF73E
:10123800EDF8001B0228F5D903202FE000202DE04F
:1012480000202BE0012B2BD01B4B5B6803F48001A3
:10125800E269914226D103F03F02216A8A4223D1F2
:10126800616A47F6C0721A40B2EB811F1ED103F4BF
:101278004031A26A5208013AB1EB024F18D103F08B
:101288007063E26AB3EB026F14D1002006E001201C
:101298007047012002E0012000E0002002B070BD8C
:1012A8000120FBE70120F9E70120F7E70120F5E736
:1012B8000120F3E70120F1E700380240000047422F
:1012C80008B5264B9B6803F00C03042B41D0082B70
:1012D80041D1224B5A6802F03F025B6813F4800F39
:1012E80012D01E4B5968C1F388111D480023A1FB79
:1012F8000001FEF745FF194B5B68C3F30143013357
:101308005B00B0FBF3F027E0144B5868C0F388107B
:101318004FEA401CBCEB000C6EEB0E0E4FEA8E132E
:1013280043EA9C634FEA8C11B1EB0C0163EB0E03AB
:10133800DB0043EA5173C90011EB000C43F10003D1
:10134800990200234FEA8C2041EA9C51FEF718FFCE
:10135800D1E7034800E0034808BD00BF0038024059
:10136800001BB7000024F400002800F09B8070B533
:101378000D4604464F4B1B6803F007038B4208D207
:10138800CBB24C4A1370136803F007038B4240F04A
:101398008B80236813F0020F17D013F0040F04D0CA
:1013A800454A936843F4E0539360236813F0080FA9
:1013B80004D0414A936843F4604393603E4A93687B
:1013C80023F0F003A1680B439360236813F0010F27
:1013D80032D06368012B21D09A1E012A25D9364ABA
:1013E800126812F0020F61D033498A6822F00302B2
:1013F80013438B60FFF70AF806462F4B9B6803F0F0
:101408000C036268B3EB820F16D0FEF7FFFF801B58
:1014180041F288339842F0D9032042E0264A126804
:1014280012F4003FE0D101203BE0234A126812F099
:10143800007FD9D1012034E01E4B1B6803F007035D
:10144800AB4207D9EAB21B4B1A701B6803F00703BB
:10145800AB422DD1236813F0040F06D0164A9368C7
:1014680023F4E053E1680B439360236813F0080FFB
:1014780007D0114A936823F46043216943EAC10302
:101488009360FFF71DFF0C4B9B68C3F303130B4AD4
:10149800D35CD8400A4B18600A4B1868FEF76AFFFD
:1014A800002070BD012070470120FAE70120F8E70D
:1014B8000120F6E7003C024000380240DC2B00081F
:1014C800080000200400002008B50D480D4B0360FB
:1014D8000323436000238360C3604FF4102202613A
:1014E8004FF400124261037643768376C37603771E
:1014F8004377FEF7A5FF00B908BD00F059F9FBE7EF
:10150800980500200064004008B50D480D4B0360A5
:101518000323436000238360C3604FF410220261F9
:101528004FF400124261037643768376C3760377DD
:101538004377FEF785FF00B908BD00F039F9FBE7EE
:10154800700500200068004010B58AB0002305939C
:10155800069307930893099303683D4A934204D07E
:101568003C4A934234D00AB010BD3B4A1368013359
:101578001360012B1FD000240194384B1A6B42F0E2
:1015880008021A631B6B03F008030193019B0323F2
:1015980005930222069208930923099305A9304866
:1015A800FFF79CFB224621461420FFF765FB142019
:1015B800FFF772FBD7E700230093284B1A6C42F021
:1015C80000721A641B6C03F000730093009BD2E74F
:1015D80000230293214B1A6C42F080621A641B6C40
:1015E80003F080630293029B1B4A13680133136064
:1015F800012B20D000240494184B1A6B42F00202ED
:101608001A631B6B03F002030493049B6023059386
:1016180002230693032308930923099305A9114874
:10162800FFF75CFB224621464020FFF725FB4020C0
:10163800FFF732FB97E700230393084B1A6C42F03D
:1016480000721A641B6C03F000730393039BD1E7C9
:1016580000640040006800406C050020003802402B
:10166800000C02400004024084B000220092154B96
:10167800196B41F002011963196B01F00201009125
:1016880000990192196B41F001011963196B01F07E
:101698000101019101990292196B41F00801196346
:1016A800196B01F008010291029903921A6B42F03A
:1016B80080021A631B6B03F080030393039B04B03F
:1016C800704700BF0038024030B595B03022002185
:1016D80008A801F011F800240394049405940694D2
:1016E800079401941C4B1A6C42F080521A641B6CCC
:1016F80003F080530193019B0294184B1A6842F43B
:1017080080421A601B6803F480430293029B012302
:1017180008934FF48033099302250E954FF4800304
:101728000F9306231093A823119312950423139360
:1017380008A8FFF7C9FB0F230393049505944FF4FA
:10174800A05306934FF480530793052103A8FFF78E
:101758000BFE15B030BD00BF0038024000700040DD
:1017680008B5FEF72DFEFFF7AFFFFFF77DFFFFF788
:10177800ABFEFFF7C9FE00F065FB00F048FA0B4B23
:10178800186080B100F08CFA012000F007F90121FF
:10179800032000F05DF90121962000F0B3F9C8207C
:1017A800FEF73AFEF7E7012008BD00BFC00500209C
:1017B8007047000082B0002100910B4B5A6C42F434
:1017C80080425A645A6C02F480420092009A019155
:1017D8001A6C42F080521A641B6C03F08053019318
:1017E800019B02B0704700BF003802407047FEE717
:1017F800FEE7FEE7FEE770477047704708B5FEF75B
:10180800F9FD08BD08B50248FFF7CBF808BD00BFD1
:101818009805002008B50248FFF7C3F808BD00BFC7
:101828007005002010B503460C4A0D490D480068A4
:1018380040B10C4800680344521A934206D8094A3A
:10184800136010BD0748084C0460F2E700F0B8FFC9
:101858000C2303604FF0FF30F3E700BF00000220C5
:1018680000040000C4050020F80800200F49D1F842
:10187800883043F47003C1F888300D4B1A6842F081
:1018880001021A60002098601A6822F0847222F41B
:1018980080321A60074A5A601A6822F480221A6055
:1018A800D8604FF000638B60704700BF00ED00E028
:1018B8000038024010300024DFF834D00D480E49BB
:1018C8000E4A002302E0D458C4500433C4188C4292
:1018D800F9D30B4A0B4C002301E013600432A242F7
:1018E800FBD3FFF7C3FF00F071FFFFF739FF704725
:1018F80000000220000000204C050020002C0008F9
:101908004C050020F4080020FEE7000000B58DB06B
:1019180003AB05AA0021FEF781FF059A40F2815327
:101928009A4202D00DB05DF804FB03AB93E80300C4
:101938000190ADF808109DF80430602BF2D19DF8A5
:101948000820BDF80610144B186800F05DFAC2783C
:10195800062A19D80123934013F0480F16D113F023
:10196800240F15D113F0120F14D0012204A900205E
:10197800FEF720FC00239DF80820BDF80610064855
:10198800006800F045FACDE70022EFE70422EDE712
:101998000222EBE70022E9E7C005002010B582B07B
:1019A80000F5C060264B186000229A60DA600821B2
:1019B800196146F24001234B186800F025FA0F23FD
:1019C800ADF80230437A002B38D0C278062A1DD8E9
:1019D8000123934013F0480F1BD113F0240F1BD1A0
:1019E80013F0120F1BD001242F22174B1A700288F4
:1019F8005A700288120A9A708278DA7022460DF1BB
:101A08000201181DFEF7D6FB221D0FE00024224616
:101A1800EBE704242322E8E702242B22E5E700244D
:101A28002246E2E7084B002199540132072AF9DDE2
:101A380001AB054A02490548FEF772FE02B010BD27
:101A4800D0050020C0050020C8050020980500200A
:101A580010B582B0044601F5C061264B196000221A
:101A68009A60DA600821196146F26001224B186811
:101A780000F0CAF9ADF80240437A002B38D0C2789A
:101A8800062A1DD80123934013F0480F1BD113F0E9
:101A9800240F1BD113F0120F1BD001242F22174B38
:101AA8001A7002885A700288120A9A708278DA705C
:101AB80022460DF10201181DFEF77CFB221D0FE0E6
:101AC80000242246EBE704242322E8E702242B2201
:101AD800E5E700242246E2E7084B00219954013249
:101AE800072AF9DD01AB054A02490548FEF718FE49
:101AF80002B010BDD0050020C0050020C805002098
:101B08009805002010B582B0044601F5C0612A4B43
:101B1800196000229A60DA600821196146F2FF0113
:101B2800264B186800F070F9254B04FB03F3254A8F
:101B380082FB0312DB17C3EB62230093437A002B6B
:101B480037D0C278062A1CD80123934013F0480FD7
:101B58001AD113F0240F1AD113F0120F1AD001243E
:101B68002F22194B1A7002885A700288120A9A702A
:101B78008278DA7022466946181DFEF71BFB221D83
:101B88000FE000242246ECE704242322E9E702249C
:101B98002B22E6E700242246E3E70B4B0021995469
:101BA8000132072AF9DD01AB074A03490748FEF766
:101BB800B7FD02B010BD00BFD0050020C005002051
:101BC80000204E0073B2E745C805002098050020A4
:101BD800006800E0C06828B103888B42FAD1837896
:101BE8009342F7D1704708280DD8DFE800F00505C3
:101BF8000E07050E070709000120704704207047EB
:101C08004FF480707047002070470220704708B575
:101C1800082000F0A3FA034610B100220260828077
:101C2800184608BDE0B138B50C460546D1B18A78EA
:101C38000988FFF7CDFF08B1002038BDE078FFF72D
:101C4800D2FF08B90020F8E700F088FA606058B1C0
:101C58002B68E3602C60AB880133AB800120ECE794
:101C6800002070470020E8E70020E6E7F8B50446C2
:101C78000F4616461D46102000F070FA01460780F0
:101C88008670C570069B43609DF81C3003729DF8F2
:101C9800203043720023C3602046FFF7C3FFF8BD1E
:101CA8002DE9F04186B006460027059701240294E5
:101CB80001940DF11408CDF8008005233A4646F248
:101CC8004001FFF7D3FF054602940194CDF8008048
:101CD80023463A4646F260013046FFF7C7FF054300
:101CE800EDB202970194CDF8008003233A4646F2FC
:101CF80063013046FFF7BAFF0543EDB2029701943E
:101D0800CDF8008002233A4646F278013046FFF7C4
:101D1800ADFF0543EDB202970194CDF8008003238F
:101D28003A4646F26C013046FFF7A0FF0543EDB294
:101D380002940194CDF8008004233A4646F27E01CD
:101D48003046FFF793FF0543EDB202940194CDF8B6
:101D5800008003233A4646F27A013046FFF786FFB1
:101D68000543EDB202940194CDF8008006233A466B
:101D780046F2FF013046FFF779FF0543EDB20294C2
:101D88000194CDF8008002233A4646F271013046AC
:101D9800FFF76CFF0543EDB202940194CDF8008083
:101DA80005233A464FF4C1413046FFF75FFF05432C
:101DB800EDB202940194CDF800800523224646F244
:101DC800F9013046FFF752FF0543EDB20294019442
:101DD800CDF800800523022246F2F9013046FFF7CC
:101DE80045FF0543EDB202940194CDF8008002232B
:101DF800224646F2FB013046FFF738FF2843604091
:101E0800C0B206B0BDE8F08108B5FFF7E1FE08BD35
:101E180070B51C46FFF7DCFE80B10646457A35B141
:101E280074B1C078FFF7DFFE024610B900252846D6
:101E380070BD21467068FEF7BDF9F8E70025F6E7A2
:101E48000025F4E710B58AB0012208920023069312
:101E580007920093019302930393059304930E4C06
:101E680069462046FEF792FB2046FEF72BFC02212E
:101E78002046FEF778FD0E2309930593074C694623
:101E88002046FEF783FB2046FEF71CFC0221204675
:101E9800FEF769FD0AB010BD980500207005002006
:101EA8002DE9F047089D0C46002B4ED194468C45F1
:101EB8008646B2FA82F262D94AB1C2F12003914051
:101EC80020FA03F30CFA02FC194300FA02FE4FEA67
:101ED8001C471FFA8CF6B1FBF7F44FEA1E4307FBC9
:101EE800141143EA014304FB06F199420AD91CEB99
:101EF800030304F1FF3080F01281994240F20F8110
:101F0800023C6344591A1FFA8EF3B1FBF7F007FB42
:101F1800101143EA014300FB06F69E420AD91CEB66
:101F2800030300F1FF3180F0FC809E4240F2F9800B
:101F3800634402389B1B40EA044000211DB1D34092
:101F48000022C5E90032BDE8F0878B4205D90DB102
:101F5800C5E9000100210846F5E7B3FA83F1002935
:101F680046D1A34202D39042C0F0F080861A64EBB7
:101F780003030120002DE6D0C5E90063E3E7002A4A
:101F880040F09080A1EB0C044FEA1C481FFA8CF734
:101F98000121B4FBF8F64FEA1E4308FB164443EA56
:101FA800044307FB06F0984208D91CEB030306F12B
:101FB800FF3402D2984200F2CD8026461C1A1FFA3E
:101FC8008EF3B4FBF8F008FB104443EA044300FB2B
:101FD80007F79F4208D91CEB030300F1FF3402D234
:101FE8009F4200F2B0802046DB1B40EA0640A5E78E
:101FF800C1F120068B4022FA06F71F4320FA06FC9F
:1020080004FA01F343EA0C03F44000FA01F8380C2F
:102018004FEA1349B4FBF0FE1FFA87FC00FB1E448D
:1020280049EA04440EFB0CF9A14502FA01F20AD967
:102038003C190EF1FF3A80F08480A14540F281807E
:10204800AEF1020E3C44A4EB09041FFA83F9B4FB79
:10205800F0F300FB134449EA044403FB0CFCA445D9
:1020680007D93C1903F1FF3067D2A44565D9023B73
:102078003C4443EA0E40A0FB0293A4EB0C049C42B0
:10208800CE469C4651D34ED055B1B8EB0E0364EB07
:102098000C0404FA06F6CB401E43CC40C5E90064A4
:1020A800002150E7C2F1200320FA03F10CFA02FCE8
:1020B80024FA03F394400C434FEA1C4800FA02FE4A
:1020C8001FFA8CF7B3FBF8F008FB1031230C43EA36
:1020D800014300FB07F1994208D91CEB030300F107
:1020E800FF362CD299422AD9023863445B1AA4B22B
:1020F800B3FBF8F108FB113344EA034401FB07F38F
:10210800A34208D91CEB040401F1FF3613D2A34201
:1021180011D902396444E41A41EA004139E7044616
:10212800F0E6084606E7C845AED2B9EB020E63EB07
:10213800070C0138A8E73146EDE7034699E7304632
:10214800D4E7D6467FE7634402384DE70646234680
:1021580008460FE7023E634430E700BF024B0146E2
:10216800186800F003B800BF200400202DE9F04FE4
:1021780001F10B05162D85B0064624D8102900F26A
:10218800B18000F0ADFA102518234FF0020CBA4FB9
:102198003B44A3F108025C68944200F02281636822
:1021A800E268A16823F00303CA60234430469160C3
:1021B8005A6842F001025A60083400F097FA204643
:1021C80005B0BDE8F08F35F0070500F18B80A94216
:1021D80000F2888000F084FAB5F5FC7FC0F07381C6
:1021E8006B0A00F08380042B00F22281AB0903F113
:1021F800390C03F1380E4FEACC039F4F3B44A3F14F
:1022080008005C68A04207D10DE0002AE16880F26E
:10221800E280884207D00C46636823F003035A1B08
:102228000F2AF2DDF446DFF864823C69444500F089
:10223800BF80636823F00309A9EB05030F2B00F3A4
:102248004781002BC7E9048880F23181B9F5007F06
:10225800D7F804E080F0CC804FEAD90101314FEA89
:102268005919012303FA09F357F83120A2604EEAFD
:10227800030E07EBC103083BE360C7F804E047F827
:102288003140D4604FEAAC0301209840704534D8FF
:1022980010EA0E0F07D12CF0030C400010EA0E0FC5
:1022A8000CF1040CF9D007EBCC0A5246E146D16890
:1022B8000EE04B6823F00303A3EB050EBEF10F0FEE
:1022C8000C46C96800F3C180BEF1000F80F2E280BD
:1022D8008A42EED109F1010919F0030F02F108024F
:1022E800E5D121E10C233360002468E74FF4007343
:1022F8004FF0400C4FF03F0E7FE7BC68636823F057
:102308000309A94503D3A9EB05030F2B53DC5B4B4A
:10231800DFF87CB11B68082003F1100800F082FA8E
:10232800DBF8003001900133A84404EB090205D022
:1023380008F1FF388044434203EA08084146304622
:10234800029200F02BFAB0F1FF3F029A824600F0A9
:10235800DC80824200F2D780494B019918684044DA
:1023680001F1FF311860844640F0FC801AEA010F41
:1023780040F0F880D7F808A0C84448F00102CAF82D
:102388000420404B1968814238BF18603E4B1968D9
:10239800814238BF1860544622F00308A845A8EBCC
:1023A800050301D30F2B06DC304600F09FF99BE7AD
:1023B800D7F804E066E7621943F0010345F0010528
:1023C80065603046BA60536000F090F908342046E2
:1023D80005B0BDE8F08FA2682344D16030468A601A
:1023E800E6E6DC68A3427FF4DAAE0CF1020C1AE7E9
:1023F800B9F5206F4FEA59227ED3142A00F21581CD
:1024080002F15C03DB005B32F918FB58083999428A
:1024180003D1F0E09B68994204D05A6822F0030285
:102428004A45F7D8D968C4E902318C60DC6029E7ED
:10243800142B6DD9542B00F201812B0B03F16F0C77
:1024480003F16E0E4FEACC03D7E63046A668621950
:1024580045F001056560F1608E604EF00101C7E945
:102468000422C2F80880C2F80C80516044F803E0E6
:1024780000F03CF90834A2E61800002018060020F5
:10248800E805002014060020100600202000002087
:102498000C000020234430465A6842F001025A607A
:1024A80054F8083FD9608B6000F020F987E6A14412
:1024B8003046D9F8043043F00103C9F80430083431
:1024C80000F014F97BE64FEAD50C05F108035EE647
:1024D800621943F0010145F0010565603046C7E91E
:1024E8000422C2F80880C2F80C80516044F8093010
:1024F80000F0FCF8083462E64FEA991202F1390359
:10250800DB00383280E7BC4224D0BC68626843E70D
:1025180003F15C0C03F15B0E4FEACC036DE65AF84D
:102528000839534540F0D8801CF0030F0CF1FF3CEC
:10253800F5D17B6823EA00037B60400098423FF6B0
:10254800DCAE18B9D9E6400009F104091842FAD0FE
:10255800CC46A8E6614B0199186808EB000C0139D4
:10256800C3F800C0DBF8000001301BBFAAEB020271
:102578006244CBF800A01A601AF00702CDE90223E2
:1025880042D0C2F10802019B9244D044134408EAA5
:1025980001001A1A02EA010B5946304600F0FEF80B
:1025A800421C039B7AD0A0EB0A0000EB0B081868CA
:1025B800C7F808A048F001025844BC42CAF80420F1
:1025C80018603FF4DEAEB9F10F0F42D96168A9F186
:1025D8000C0222F0070201F0010111436160A11809
:1025E8004FF0050C0F2AC1F804C0C1F808C04AD83A
:1025F800DAF80420C5E69210012000FA02F24EEA49
:10260800020EC7F804E00EE7019B0AEB08020A4035
:102618009A1A02EA010B5946304600F0BFF8431CEB
:10262800039BC0D1DDF808B0C1E7542A15D84FEA9A
:10263800193202F16F03DB006E32E5E6B3F5AA7FCB
:1026480015D8EB0B03F1780C03F1770E4FEACC03A6
:10265800D3E50123CAF80430A6E6B2F5AA7F25D847
:102668004FEAD93202F17803DB007732CCE640F248
:102678005452934225D8AB0C03F17D0C03F17C0E28
:102688004FEACC03B9E5304604F10801019300F0A4
:1026980043F9019BD7F808A01868A9E7029A083AF5
:1026A8009044A8EB0A084FF0000B80E740F254531F
:1026B8009A420DD84FEA994202F17D03DB007C3241
:1026C800A2E64FF47E734FF07F0C4FF07E0E94E538
:1026D8004FF47E737E2297E67B682EE7E80500209C
:1026E800014800F09BB800BF58070020014800F0DF
:1026F80097B800BF58070020830730B547D0541E4D
:10270800002A3ED0CAB2034601E0013C39D303F89F
:10271800012B9D07F9D1032C2CD9CDB205EB05254A
:102728000F2C05EB054535D9A4F1100222F00F0C4A
:1027380003F1100EE6444FEA121C1A461560556064
:102748009560D56010327245F8D10CF1010214F091
:102758000C0F03EB021204F00F0C13D0ACF10403BE
:1027680023F003030433134442F8045B9A42FBD179
:102778000CF003042CB1C9B21C4403F8011B9C42A1
:10278800FBD130BD64461346002CF4D1F9E703466B
:102798001446C0E71A46A446E0E700BF38B5074D1F
:1027A8000022044608462A60FFF73CF8431C00D084
:1027B80038BD2B68002BFBD0236038BD54070020A0
:1027C800014B1868704700BF2004002070B50F4BFC
:1027D8000F4DAB42A3EB050607D0B610002455F801
:1027E800043B01349847A642F9D800F0E7F9094DAF
:1027F800094B5E1BAB424FEAA60606D0002455F8EB
:10280800043B01349847A642F9D870BDF42B000860
:10281800F42B0008F42B0008FC2B0008704700BFBD
:10282800704700BF082802D14FF48050704708B5A0
:10283800FFF7C6FF162303604FF0FF3008BD00BF47
:10284800024B13B1024800F005B8704700000000C1
:102858001D2B0008002301461A46184600F06EB9E1
:102868002DE9F843064608208946FFF7DBFFDFF825
:10287800A48005463046FFF733FFD8F808305F6874
:1028880027F00307A7F11104A4EB09042C44B4FBB7
:10289800F5F4013C05FB04F4A54208DC00213046B0
:1028A800FFF77CFFD8F808303B44984205D0304603
:1028B800FFF71CFF0020BDE8F88361423046FFF7B0
:1028C8006DFF01300FD0114AD8F808303F1B47F090
:1028D80001075F60136830461B1B1360FFF706FF94
:1028E8000120BDE8F88300213046FFF757FFD8F8EC
:1028F8000820831A0F2BDADD43F001035360044BE1
:1029080002491B68C01A0860D1E700BFE80500202B
:102918000C0000201800002000297CD02DE9F0418F
:102928000C468046FFF7DCFE54F8043C764FA4F1D1
:10293800080523F001016818BE684268864222F043
:10294800030200F08380DE07426000EB020C33D400
:1029580054F8084CDCF804302D1B2144AC6807F10E
:10296800080C644503F0010364D0D5F80CE0C4F802
:102978000CE0CEF80840002B00F0818041F0010304
:102988006B600160B1F5007F22D27868CB08012224
:10299800490901338A40024357F833107A6007EB3C
:1029A800C302083AC5E9021247F83350CD604046E1
:1029B800BDE8F041FFF79ABEDCF80430DB072BD501
:1029C80041F00103B1F5007F44F8043C0160DCD319
:1029D800B1F5206F4FEA512353D28B0903F1390027
:1029E80003F13802C300F818FB580838984203D19D
:1029F80063E09B68984204D05A6822F003028A4236
:102A0800F7D8D868C5E902308560DD604046BDE882
:102A1800F041FFF76BBE7047114407F1080C83685B
:102A280063453FD0C268DA60936041F001036B6090
:102A38006950A7E7002B61D10A44D0E90213CB60A3
:102A4800996042F001036B60AA50B0E7DB070A44C3
:102A580007D454F8083CED1A1A44D5E90213CB60A0
:102A6800996042F001036B60284BBD601B6893427C
:102A78009DD8274B40461968FFF7F2FE97E71144A7
:102A8800CDE7142B08D9542B1FD80B0B03F16F007B
:102A980003F16E02C300A6E703F15C0003F15B02D9
:102AA800C300A0E741F001033D617D61C5F808C09E
:102AB800C5F80CC06B60695079E7796892100124F9
:102AC80004FA02F20A437A609CE7B3F5AA7F06D8B3
:102AD800CB0B03F1780003F17702C30083E740F2E0
:102AE8005452934206D88B0C03F17D0003F17C020B
:102AF800C30078E74FF47E737E2274E741F0010348
:102B08006B60016053E700BF180000201000002030
:102B18001806002038B5074D074C2C1BA41005D00B
:102B2800013C55F8043D9847002CF9D1BDE83840E0
:102B380000F04AB8002C0008FC2B00082DE9F843E7
:102B48001B4D0646286898460F469146FFF766FED5
:102B5800184B1C681CB3286865681F2D22DC4EB909
:102B68006B1C0235636044F82570FFF759FE00209E
:102B7800BDE8F88304EB85010123C1F88890D4F8F7
:102B88008821AB401A43022EC4F88821C1F8088175
:102B9800E6D1D4F88C211A43C4F88C21E0E7064C1E
:102BA8001C60D8E7FFF73CFE4FF0FF30E0E700BFBE
:102BB800480500206007002064070020F8B500BF22
:102BC800F8BC08BC9E467047F8B500BFF8BC08BC06
:042BD8009E4670475E
:102BDC0000000000000000000102030406070809C1
:082BEC00D0D5FF7F01000000BD
:082BF4004928000859030008FC
:042BFC003103000899
:102C000001000000100000000024F400FFFFFFFF9F
:102C100000000200000000000000000000000000B2
:102C200018000020180000202000002020000020B4
:102C30002800002028000020300000203000002064
:102C40003800002038000020400000204000002014
:102C500048000020480000205000002050000020C4
:102C60005800002058000020600000206000002074
:102C70006800002068000020700000207000002024
:102C800078000020780000208000002080000020D4
:102C90008800002088000020900000209000002084
:102CA0009800002098000020A0000020A000002034
:102CB000A8000020A8000020B0000020B0000020E4
:102CC000B8000020B8000020C0000020C000002094
:102CD000C8000020C8000020D0000020D000002044
:102CE000D8000020D8000020E0000020E0000020F4
:102CF000E8000020E8000020F0000020F0000020A4
:102D0000F8000020F8000020000100200001002051
:102D100008010020080100201001002010010020FF
:102D200018010020180100202001002020010020AF
:102D3000280100202801002030010020300100205F
:102D4000380100203801002040010020400100200F
:102D500048010020480100205001002050010020BF
:102D6000580100205801002060010020600100206F
:102D7000680100206801002070010020700100201F
:102D800078010020780100208001002080010020CF
:102D9000880100208801002090010020900100207F
:102DA0009801002098010020A0010020A00100202F
:102DB000A8010020A8010020B0010020B0010020DF
:102DC000B8010020B8010020C0010020C00100208F
:102DD000C8010020C8010020D0010020D00100203F
:102DE000D8010020D8010020E0010020E0010020EF
:102DF000E8010020E8010020F0010020F00100209F
:102E0000F8010020F801002000020020000200204C
:102E100008020020080200201002002010020020FA
:102E200018020020180200202002002020020020AA
:102E3000280200202802002030020020300200205A
:102E4000380200203802002040020020400200200A
:102E500048020020480200205002002050020020BA
:102E6000580200205802002060020020600200206A
:102E7000680200206802002070020020700200201A
:102E800078020020780200208002002080020020CA
:102E9000880200208802002090020020900200207A
:102EA0009802002098020020A0020020A00200202A
:102EB000A8020020A8020020B0020020B0020020DA
:102EC000B8020020B8020020C0020020C00200208A
:102ED000C8020020C8020020D0020020D00200203A
:102EE000D8020020D8020020E0020020E0020020EA
:102EF000E8020020E8020020F0020020F00200209A
:102F0000F8020020F8020020000300200003002047
:102F100008030020080300201003002010030020F5
:102F200018030020180300202003002020030020A5
:102F30002803002028030020300300203003002055
:102F40003803002038030020400300204003002005
:102F500048030020480300205003002050030020B5
:102F60005803002058030020600300206003002065
:102F70006803002068030020700300207003002015
:102F800078030020780300208003002080030020C5
:102F90008803002088030020900300209003002075
:102FA0009803002098030020A0030020A003002025
:102FB000A8030020A8030020B0030020B0030020D5
:102FC000B8030020B8030020C0030020C003002085
:102FD000C8030020C8030020D0030020D003002035
:102FE000D8030020D8030020E0030020E0030020E5
:102FF000E8030020E8030020F0030020F003002095
:10300000F8030020F8030020000400200004002042
:1030100008040020080400201004002010040020F0
:103020002804002000000000000000001C06002012
:1030300084060020EC0600200000000000000000D4
:103040000000000000000000000000000000000080
:103050000000000000000000000000000000000070
:103060000000000000000000000000000000000060
:103070000000000000000000000000000000000050
:103080000000000000000000000000000000000040
:103090000000000000000000000000000000000030
:1030A0000000000000000000000000000000000020
:1030B0000000000000000000000000000000000010
:1030C00001000000000000000E33CDAB34126DE6AD
:1030D000ECDE05000B000000000000000000000016
:1030E00000000000000000000000000000000000E0
:1030F00000000000000000000000000000000000D0
:1031000000000000000000000000000000000000BF
:1031100000000000000000000000000000000000AF
:10312000000000000000000000000000000000009F
:10313000000000000000000000000000000000008F
:0C31400000000000000000005C07002000
:04000005080018C116
:00000001FF
