:020000040800F2
:10000000000002202D170008A9160008AB160008F2
:10001000AD160008AF160008B11600080000000079
:10002000000000000000000000000000B3160008FF
:10003000B516000800000000B7160008B916000841
:100040007D1700087D1700087D1700087D17000840
:100050007D1700087D1700087D1700087D17000830
:100060007D1700087D1700087D1700087D17000820
:100070007D1700087D1700087D1700087D17000810
:100080007D1700087D1700087D1700087D17000800
:10009000C11600087D1700087D1700087D170008AD
:1000A0007D1700087D1700087D1700087D170008E0
:1000B0007D1700087D1700087D1700087D170008D0
:1000C0007D1700087D1700087D1700087D170008C0
:1000D0007D1700087D1700087D1700087D170008B0
:1000E0007D1700087D1700087D1700087D170008A0
:1000F0007D1700087D1700087D1700087D17000890
:100100007D1700087D1700087D1700087D1700087F
:100110007D1700087D1700087D1700087D1700086F
:100120007D1700087D1700087D1700087D1700085F
:100130007D1700087D1700087D1700087D1700084F
:10014000D11600087D1700087D1700087D170008EC
:100150007D1700087D1700087D1700087D1700082F
:100160007D1700087D1700087D1700087D1700081F
:100170007D1700087D1700087D17000800000000AB
:080180007D1700087D1700083F
:1001880053B94AB9002908BF00281CBF4FF0FF31F6
:100198004FF0FF3000F00CB8ADF1080C6DE904CE5B
:1001A80001F0CEFBDDF804E0DDE9022304B070477E
:1001B800704700BF0348044B834202D0034B03B18E
:1001C80018477047100000201000002000000000B1
:1001D8000548064B1B1AD90F01EBA301491002D0A1
:1001E800034B03B11847704710000020100000208F
:1001F8000000000010B5064C237843B9FFF7DAFF7A
:10020800044B13B10448AFF300800123237010BDE1
:100218001000002000000000C81D000808B5054BAC
:100228001BB105490548AFF30080BDE80840FFF75A
:10023800CFBF00BF0000000014000020C81D000848
:1002480010B504460E4B1A784FF47A73B3FBF2F3E9
:100258000C4A1068B0FBF3F000F092FC68B90F2C60
:1002680001D901200AE0002221464FF0FF3000F0BA
:1002780069FC054B1C60002000E0012010BD00BF98
:1002880000000020080000200400002008B50B4BE7
:100298001A6842F400721A601A6842F480621A609E
:1002A8001A6842F480721A60032000F039FC0020BA
:1002B800FFF7C6FF01F0D8F9002008BD003C024056
:1002C800034A1168034B1B780B441360704700BF47
:1002D8002C00002000000020014B1868704700BF68
:1002E8002C00002038B50446FFF7F6FF0546B4F1A8
:1002F800FF3F02D0044B1B781C44FFF7EDFF401B67
:10030800A042FAD338BD00BF00000020002800F04A
:10031800A18038B5044690F82030D3B1226813681C
:1003280043F001031360FFF7D7FF054623685A68B7
:1003380012F0010F10D1FFF7CFFF401B0A28F5D9A3
:10034800636A43F400336362052384F82030012094
:1003580038BD01F05FF8E1E71A6822F002021A607E
:10036800FFF7BAFF054623685A6812F0020F0DD04E
:10037800FFF7B2FF401B0A28F5D9636A43F400333C
:100388006362052384F820300120E1E7227E012AF8
:100398003DD01A6822F080021A60637E012B3BD0A0
:1003A8002268136823F040031360A37E012B39D021
:1003B8002268136823F020031360E37E012B37D0F3
:1003C8002268136843F010031360237F012B35D094
:1003D8002268136823F008031360637F012B33D06E
:1003E8002268136823F004031360A368E2681343C8
:1003F80022691343626913436268013A216813430F
:10040800CB6100206062012384F82030A0E71A68DD
:1004180042F080021A60C0E72268136843F0400384
:100428001360C2E72268136843F020031360C4E72F
:100438002268136823F010031360C6E72268136864
:1004480043F008031360C8E72268136843F0040305
:100458001360CAE70120704790F82030013BDBB2F7
:10046800012B05D9436A43F4802343620120704776
:1004780030B5464BD3F8002242F00102C3F80022FF
:10048800D3F8002222F47C52C3F80022D3F80022C9
:10049800486A42EA0022C3F800224A6902F01F02B1
:1004A800012000FA02F2D3F81C026FEA020C20EADB
:1004B8000200C3F81C02CB69C3B9344BD3F80C0251
:1004C8000CEA0000C3F80C028C884869CD6844EA3D
:1004D8000544483043F830408C68088840EA0440B6
:1004E8004C6904F1480E03EBCE035860CB69012B2D
:1004F8001ED08B69002B33D12448D0F804320CEA83
:100508000303C0F804320B698BBB2048D0F81432BF
:100518000CEA0303C0F814320B6A012B2ED01B4AD5
:10052800D2F8003223F00103C2F80032002030BDB7
:10053800164BD3F80C021043C3F80C028C88486998
:100548000D6844EA0544483043F8304088894C69CE
:100558008D6840EA0540483403EBC4035860C8E797
:100568000A48D0F804321343C0F80432CBE70748EE
:10057800D0F814321343C0F81432CDE70349D1F848
:100588001C321343C1F81C32C9E700BF00640040A5
:1005980070B5044690F82050EDB2012D06D0436A9C
:1005A80043F4002343620125284670BD022380F8E6
:1005B80020300268136823F001031360FFF78CFEF4
:1005C800064623685B6813F0010F0CD0FFF784FE22
:1005D800831B0A2BF5D9636A43F40033636205234E
:1005E80084F82030E0E700256562DDE730B590F853
:1005F80020C00468A4680CF1FF3C5FFA8CFCBCF1D5
:10060800010F6BD814F0E05F62D0C4F3016CBCF149
:10061800020F05D9436A43F400034362012062E0F4
:10062800012404FA0CF41C608B68002B3DD10D6882
:10063800CB68046843EA45550CF118031B01E550E3
:1006480003680C690CF1180E03EB0E135C600B7D4C
:10065800012B35D0D17993791B0443EA0163517991
:1006680043EA012314790168234301EB0C11C1F813
:100678008C31D17893781B0443EA0163517843EABB
:100688000123117802680B4302EB0C12C2F888317F
:1006980002680CF1180C4FEA0C1C52F80C3043F0AD
:1006A800010342F80C3000201DE04C6843EAC40303
:1006B800CC6823430CF11804240105682B51BFE7CB
:1006C800036803EB0E13596841F480715960C1E760
:1006D800436A43F400134362012004E0436A43F48D
:1006E80080234362012030BD90F820C00CF1FF3C0C
:1006F8005FFA8CFCBCF1010F00F2958030B451B95F
:100708000468E46814F0030F10D1436A43F400133B
:100718004362012077E00468246914F0030F05D1CF
:10072800436A43F40013436201206CE001F11B04A7
:10073800240105682C5904F004049460002C64D149
:1007480001F11B04240105682C59640D1460046828
:1007580001F11B0C4FEA0C1C54F80C4004F0020485
:10076800D46004686444646804F00F041461046885
:1007780064446468C4F30724946104686444646846
:10078800240C5461026802EB0112D2F8B8211A70E5
:10079800026802EB0112D2F8B821C2F307225A709C
:1007A800026802EB0112D2F8B821C2F307429A702C
:1007B800026802EB0112D2F8B821120EDA70026850
:1007C80002EB0112D2F8BC211A71026802EB011285
:1007D800D2F8BC21C2F307225A71026802EB011257
:1007E800D2F8BC21C2F307429A71026802EB0112E7
:1007F800D2F8BC21120EDA7179B90268D36843F0D5
:100808002003D360002030BC704701F11B04240191
:1008180005682C59E408546099E70268136943F0A5
:1008280020031361EEE7436A43F480234362012007
:10083800704790F82030013BDBB2012B05D9436AA1
:1008480043F48023436201207047026853690B43D5
:100858005361002070477047704770477047704772
:1008680070477047704770477047704770472DE969
:10087800F84F054603685C69D3F804809F68D3F88D
:100888000CB0D3F810A0D3F8189014F001063BD0A0
:1008980017F0010616D001229A6017F0020F08D14E
:1008A80017F0040F0CD117F0080606D04FF4805645
:1008B80008E0FFF7D0FF002604E0FFF7CFFF01E0D4
:1008C8004FF4006617F4807F0DD02B684FF48072C8
:1008D8009A6017F4007F40F0868017F4806F00F06C
:1008E800868046F4005617F4803F0DD02B684FF4ED
:1008F80080329A6017F4003F40F0838017F4802F0D
:1009080000F0838046F4004614F0080F07D01BF06F
:10091800100F04D046F400762B681022DA6014F029
:10092800040F02D01BF0080F79D114F0020F04D085
:100938002B68DB6813F0030F78D114F0400F07D051
:100948001AF0100F04D046F480662B6810221A6142
:1009580014F0200F02D01AF0080F6BD114F0100F0A
:1009680004D02B681B6913F0030F6AD114F4003FFD
:1009780002D018F0100F68D114F4803F02D018F09C
:10098800080F69D114F4004F7AD018F0040F74D00E
:1009980014F4807F04D019F0010F01D046F001064D
:1009A80014F4007F04D019F0020F01D046F00206BB
:1009B80014F4806F04D019F0040F01D046F0040637
:1009C80014F4006F59D019F0700956D0B9F1400FDE
:1009D80065D058D8B9F1200F5ED0B9F1300F42D1A7
:1009E80046F0200644E02846FFF736FF7BE717F479
:1009F800006F02D046F4804675E72846FFF72FFFC0
:100A080071E72846FFF729FF7EE717F4002F02D089
:100A180046F4803678E72846FFF722FF74E72B680C
:100A28000822DA602846FFF71CFF7EE7284600F018
:100A3800A3FE82E72B6808221A612846FFF713FFF6
:100A48008CE72846FFF70EFF90E72B6810225A60C4
:100A58002846FFF709FF8FE72B6808225A602846C7
:100A6800FFF703FF8EE7B9F1100F01D146F0080632
:100A78002A68936923F0700393612B6804225A60F3
:100A88009EB9BDE8F88FB9F1500F0BD0B9F1600FDE
:100A9800EED146F48076EBE746F01006E8E746F03C
:100AA8004006E5E746F08006E2E76B6A33436B628F
:100AB8002846FFF7DBFEE4E7002808DB0901C9B296
:100AC80000F1604000F5614080F80013704700F0C5
:100AD8000F000901C9B2014B1954704714ED00E029
:100AE80000B500F00700C0F1070CBCF1040F28BFE7
:100AF8004FF0040C031D062B0FD9C31E4FF0FF3E09
:100B08000EFA0CF021EA000199400EFA03FE22EADF
:100B18000E0241EA02005DF804FB0023EEE7000044
:100B2800074AD36823F4E0631B041B0C000200F49B
:100B3800E060034343F0BF6343F40033D36070477E
:100B480000ED00E010B50446054BD868C0F302205C
:100B5800FFF7C6FF01462046FFF7AEFF10BD00BFF6
:100B680000ED00E0002807DB00F01F024009012328
:100B78009340024A42F82030704700BF00E100E08D
:100B88000138B0F1807F0BD24FF0E0235861054A5D
:100B9800F02182F823100020986107221A6170471B
:100BA8000120704700ED00E000230F2B00F2E980E0
:100BB80070B582B065E085684FEA430E032404FAF5
:100BC8000EF425EA0405CC6804FA0EF42C4384607C
:100BD800446824EA02044A68C2F300129A40224395
:100BE80042605CE0DC08083450F8242003F0070574
:100BF800AD004FF00F0E0EFA05FE22EA0E0E0A693E
:100C0800AA4042EA0E0240F824205CE0072200E0F5
:100C1800002202FA0EF22A4302345A4D45F82420E3
:100C2800594A94686FEA0C0224EA0C054E6816F4D7
:100C3800801F01D04CEA0405534CA560E46802EA21
:100C480004054E6816F4001F01D04CEA04054E4C0A
:100C5800E560646802EA04054E6816F4003F01D0B6
:100C68004CEA0405484C6560246822404D6815F438
:100C7800803F01D04CEA0402434C226001330F2B21
:100C88007DD801229A400C6804EA020C32EA040476
:100C9800F4D14C6804F00304013C012C8BD94A6858
:100CA80002F00302032A09D0C4685D000322AA40A7
:100CB80024EA02048A68AA402243C2604A6802F011
:100CC8000302022A8ED004684FEA430E032202FA76
:100CD8000EF224EA02044A6802F0030202FA0EF253
:100CE800224302604A6812F4403FC7D000220192B2
:100CF800264A546C44F480445464526C02F4804292
:100D08000192019A9C08A51C1E4A52F8255003F02E
:100D1800030E4FEA8E0E0F2202FA0EF225EA0205A2
:100D28001B4A90423FF474AF02F5806290421AD099
:100D380002F58062904218D002F58062904216D087
:100D480002F58062904214D002F58062904212D07F
:100D580002F58062904210D002F5806290423FF422
:100D680055AF082255E7012253E7022251E7032233
:100D78004FE704224DE705224BE7062249E702B078
:100D880070BD704700380140003C01400038024007
:100D980000000240002800F0E08170B582B00446EF
:100DA800036813F0010F3BD09F4B9B6803F00C03C3
:100DB800042B2CD09C4B9B6803F00C03082B21D0F0
:100DC8006368B3F5803F4FD0B3F5A02F52D0964B50
:100DD8001A6822F480321A601A6822F480221A6093
:100DE8006368002B50D0FFF777FA05468E4B1B68D7
:100DF80013F4003F14D1FFF76FFA401B6428F5D9AC
:100E08000320B1E1884B5B6813F4800FD8D0864B80
:100E18001B6813F4003F03D06368002B00F09F8128
:100E2800236813F0020F54D07F4B9B6813F00C0F0C
:100E38003ED07D4B9B6803F00C03082B33D0E3684E
:100E4800002B68D0794B01221A60FFF745FA054656
:100E5800754B1B6813F0020F54D1FFF73DFA401B86
:100E68000228F5D903207FE16F4A136843F48033E1
:100E78001360B5E76C4B1A6842F480221A601A684E
:100E880042F480321A60ABE7FFF726FA0546664B54
:100E98001B6813F4003FC3D0FFF71EFA401B6428F9
:100EA800F5D9032060E1604B5B6813F4800FC6D16D
:100EB8005D4B1B6813F0020F03D0E368012B40F071
:100EC8005081594A136823F0F803216943EAC103A2
:100ED8001360236813F0080F42D063696BB3534B58
:100EE8000122C3F8802EFFF7F7F905464E4B5B6FDA
:100EF80013F0020F34D1FFF7EFF9401B0228F5D9A0
:100F0800032031E1484A136823F0F803216943EAD2
:100F1800C1031360DDE7454B00221A60FFF7DCF9D7
:100F28000546414B1B6813F0020FD2D0FFF7D4F9E6
:100F3800401B0228F5D9032016E13C4B0022C3F8D8
:100F4800802EFFF7C9F90546374B5B6F13F0020F88
:100F580006D0FFF7C1F9401B0228F5D9032003E1A9
:100F6800236813F0040F77D02F4B1B6C13F0805FAE
:100F780033D1002301932C4B1A6C42F080521A642F
:100F88001B6C03F080530193019B0125284B1B68C0
:100F980013F4807F23D0A368012B34D0052B38D0DD
:100FA800214B1A6F22F001021A671A6F22F004020D
:100FB8001A67A368002B3DD0FFF78EF906461A4B37
:100FC8001B6F13F0020F46D1FFF786F9801B41F221
:100FD80088339842F3D90320C6E00025D6E7144A9F
:100FE800136843F480731360FFF776F90646104BD5
:100FF8001B6813F4807FCED1FFF76EF9801B02289F
:10100800F5D90320B0E0084A136F43F001031367D2
:10101800CFE7054B1A6F42F004021A671A6F42F0C5
:1010280001021A67C5E700BF0038024000004742C6
:1010380000700040FFF750F90646524B1B6F13F043
:10104800020F08D0FFF748F9801B41F28833984215
:10105800F3D9032088E0EDB9A369002B00F0838061
:10106800484A926802F00C02082A51D0022B17D085
:10107800454B00221A66FFF72FF90446414B1B68BF
:1010880013F0007F42D0FFF727F9001B0228F5D99B
:10109800032069E03B4A136C23F080531364DBE7B9
:1010A800394B00221A66FFF717F90546354B1B68BE
:1010B80013F0007F06D0FFF70FF9401B0228F5D97F
:1010C800032051E0E369226A1343626A43EA821308
:1010D800A26A5208013A43EA0243E26A43EA026317
:1010E800284A5360284B01221A66FFF7F5F8044690
:1010F800244B1B6813F0007F06D1FFF7EDF8001BA7
:101108000228F5D903202FE000202DE000202BE055
:10111800012B2BD01B4B5B6803F48001E2699142E1
:1011280026D103F03F02216A8A4223D1616A47F639
:10113800C0721A40B2EB811F1ED103F44031A26A7B
:101148005208013AB1EB024F18D103F07063E26A1A
:10115800B3EB026F14D1002006E001207047012094
:1011680002E0012000E0002002B070BD0120FBE792
:101178000120F9E70120F7E70120F5E70120F3E76F
:101188000120F1E7003802400000474208B5264B2D
:101198009B6803F00C03042B41D0082B41D1224B50
:1011A8005A6802F03F025B6813F4800F12D01E4B9E
:1011B8005968C1F388111D480023A1FB0001FEF7FF
:1011C800DFFF194B5B68C3F3014301335B00B0FBDE
:1011D800F3F027E0144B5868C0F388104FEA401C1E
:1011E800BCEB000C6EEB0E0E4FEA8E1343EA9C63C9
:1011F8004FEA8C11B1EB0C0163EB0E03DB0043EA01
:101208005173C90011EB000C43F10003990200234C
:101218004FEA8C2041EA9C51FEF7B2FFD1E7034820
:1012280000E0034808BD00BF00380240001BB700BB
:101238000024F400002800F09B8070B50D46044699
:101248004F4B1B6803F007038B4208D2CBB24C4AC2
:101258001370136803F007038B4240F08B802368F8
:1012680013F0020F17D013F0040F04D0454A936807
:1012780043F4E0539360236813F0080F04D0414A05
:10128800936843F4604393603E4A936823F0F00305
:10129800A1680B439360236813F0010F32D0636891
:1012A800012B21D09A1E012A25D9364A126812F03C
:1012B800020F61D033498A6822F0030213438B601E
:1012C800FFF70AF806462F4B9B6803F00C03626889
:1012D800B3EB820F16D0FEF7FFFF801B41F2883375
:1012E8009842F0D9032042E0264A126812F4003FDF
:1012F800E0D101203BE0234A126812F0007FD9D1E7
:10130800012034E01E4B1B6803F00703AB4207D9EA
:10131800EAB21B4B1A701B6803F00703AB422DD1CE
:10132800236813F0040F06D0164A936823F4E05399
:10133800E1680B439360236813F0080F07D0114A44
:10134800936823F46043216943EAC1039360FFF77C
:101358001DFF0C4B9B68C3F303130B4AD35CD840A7
:101368000A4B18600A4B1868FEF76AFF002070BD28
:10137800012070470120FAE70120F8E70120F6E78D
:10138800003C024000380240E01D00080800002030
:101398000400002008B50D480D4B0360032343608B
:1013A80000238360C3604FF4102202614FF40012DF
:1013B8004261037643768376C37603774377FEF7F5
:1013C800A5FF00B908BD00F04DF9FBE75C0000205F
:1013D8000064004008B50D480D4B036003234360CB
:1013E80000238360C3604FF4102202614FF400129F
:1013F8004261037643768376C37603774377FEF7B5
:1014080085FF00B908BD00F02DF9FBE73400002086
:101418000068004010B58AB000230593069307932F
:101428000893099303683D4A934204D03C4A934287
:1014380034D00AB010BD3B4A136801331360012B46
:101448001FD000240194384B1A6B42F008021A632B
:101458001B6B03F008030193019B032305930222EE
:10146800069208930923099305A93048FFF79CFBC6
:10147800224621461420FFF765FB1420FFF772FB74
:10148800D7E700230093284B1A6C42F000721A64C5
:101498001B6C03F000730093009BD2E700230293B8
:1014A800214B1A6C42F080621A641B6C03F0806353
:1014B8000293029B1B4A136801331360012B20D04F
:1014C80000240494184B1A6B42F002021A631B6B37
:1014D80003F002030493049B6023059302230693FD
:1014E800032308930923099305A91148FFF75CFB17
:1014F800224621464020FFF725FB4020FFF732FB1C
:1015080097E700230393084B1A6C42F000721A64A1
:101518001B6C03F000730393039BD1E70064004046
:10152800006800403000002000380240000C0240F3
:101538000004024084B000220092154B196B41F060
:1015480002011963196B01F00201009100990192DF
:10155800196B41F001011963196B01F00101019147
:1015680001990292196B41F008011963196B01F096
:1015780008010291029903921A6B42F080021A63E1
:101588001B6B03F080030393039B04B0704700BFF9
:101598000038024030B595B03022002108A800F08C
:1015A8002DFB002403940494059406940794019455
:1015B8001C4B1A6C42F080521A641B6C03F0805367
:1015C8000193019B0294184B1A6842F480421A60F6
:1015D8001B6803F480430293029B012308934FF492
:1015E8008033099302250E954FF480030F93062349
:1015F8001093A823119312950423139308A8FFF7B7
:10160800C9FB0F230393049505944FF4A053069345
:101618004FF480530793052103A8FFF70BFE15B07D
:1016280030BD00BF003802400070004008B5FEF72A
:101638002DFEFFF7AFFFFFF77DFFFFF7ABFEFFF7CC
:10164800C9FE00F04FF9012000F0D8F8012103206D
:1016580000F0FAF80121962000F01EF9C820FEF7E4
:1016680041FEF7E77047000082B0002100910B4B64
:101678005A6C42F480425A645A6C02F480420092D6
:10168800009A01911A6C42F080521A641B6C03F0A4
:1016980080530193019B02B0704700BF003802409D
:1016A8007047FEE7FEE7FEE7FEE7704770477047C2
:1016B80008B5FEF705FE08BD08B50248FFF7D7F8DC
:1016C80008BD00BF5C00002008B50248FFF7CFF84E
:1016D80008BD00BF340000200F49D1F8883043F41A
:1016E8007003C1F888300D4B1A6842F001021A6085
:1016F800002098601A6822F0847222F480321A60FE
:10170800074A5A601A6822F480221A60D8604FF09B
:1017180000638B60704700BF00ED00E000380240B6
:1017280010300024DFF834D00D480E490E4A00234B
:1017380002E0D458C4500433C4188C42F9D30B4A7D
:101748000B4C002301E013600432A242FBD3FFF7E5
:10175800C3FF00F0A5FAFFF769FF704700000220F9
:101768000000002010000020041E000810000020C7
:1017780088020020FEE7000000B58BB001AB03AA89
:101788000021FEF7B1FF039BA3F20122062A2DD800
:10179800013BDBB2174A1370174903EB8300420081
:1017A800881831F902C0A0F808C09DF804E09DF837
:1017B80005C04CEA0E2C21F802C09DF80620120242
:1017C80012B29DF807C042EA0C0242809DF8082038
:1017D800120212B29DF809C042EA0C0282809DF8FA
:1017E8000A0003EB83035A008B1898710BB05DF85D
:1017F80004FB00BF84000020A800002000B583B0CF
:1018080000F5C0600D49086000238B60CB6008229A
:101818000A610B4A2B201070402050706020907095
:10182800D3700F20107153719371D37101AB0548B8
:10183800FEF7DCFE03B05DF804FB00BF900000205B
:10184800880000205C00002000B583B001F5C0636B
:101858000E490B6000238B60CB6008220A610C4A9A
:101868004FF02F0C82F800C04FF0600C82F801C0D6
:1018780082F802C0D370107153719371D37101ABA8
:101888000448FEF7B3FE03B05DF804FB90000020A7
:10189800880000205C00002000B583B001F5C0631B
:1018A8000D490B6000238B60CB6008220A610B4A4C
:1018B80023201070FF20507060209070D370137137
:1018C8004020507106209071D37101AB0448FEF797
:1018D8008DFE03B05DF804FB900000208800002016
:1018E8005C00002010B58AB00122089200230693FC
:1018F80007920093019302930393059304930E4C6C
:1019080069462046FEF7A8FD2046FEF741FE022163
:101918002046FEF78EFF0E2309930593074C694670
:101928002046FEF799FD2046FEF732FE02212046AA
:10193800FEF77FFF0AB010BD5C00002034000020D5
:101948002DE9F047089D0C46002B4ED194468C4556
:101958008646B2FA82F262D94AB1C2F120039140B6
:1019680020FA03F30CFA02FC194300FA02FE4FEACC
:101978001C471FFA8CF6B1FBF7F44FEA1E4307FB2E
:10198800141143EA014304FB06F199420AD91CEBFE
:10199800030304F1FF3080F01281994240F20F8175
:1019A800023C6344591A1FFA8EF3B1FBF7F007FBA8
:1019B800101143EA014300FB06F69E420AD91CEBCC
:1019C800030300F1FF3180F0FC809E4240F2F98071
:1019D800634402389B1B40EA044000211DB1D340F8
:1019E8000022C5E90032BDE8F0878B4205D90DB168
:1019F800C5E9000100210846F5E7B3FA83F100299B
:101A080046D1A34202D39042C0F0F080861A64EB1C
:101A180003030120002DE6D0C5E90063E3E7002AAF
:101A280040F09080A1EB0C044FEA1C481FFA8CF799
:101A38000121B4FBF8F64FEA1E4308FB164443EABB
:101A4800044307FB06F0984208D91CEB030306F190
:101A5800FF3402D2984200F2CD8026461C1A1FFAA3
:101A68008EF3B4FBF8F008FB104443EA044300FB90
:101A780007F79F4208D91CEB030300F1FF3402D299
:101A88009F4200F2B0802046DB1B40EA0640A5E7F3
:101A9800C1F120068B4022FA06F71F4320FA06FC04
:101AA80004FA01F343EA0C03F44000FA01F8380C95
:101AB8004FEA1349B4FBF0FE1FFA87FC00FB1E44F3
:101AC80049EA04440EFB0CF9A14502FA01F20AD9CD
:101AD8003C190EF1FF3A80F08480A14540F28180E4
:101AE800AEF1020E3C44A4EB09041FFA83F9B4FBDF
:101AF800F0F300FB134449EA044403FB0CFCA4453F
:101B080007D93C1903F1FF3067D2A44565D9023BD8
:101B18003C4443EA0E40A0FB0293A4EB0C049C4215
:101B2800CE469C4651D34ED055B1B8EB0E0364EB6C
:101B38000C0404FA06F6CB401E43CC40C5E9006409
:101B4800002150E7C2F1200320FA03F10CFA02FC4D
:101B580024FA03F394400C434FEA1C4800FA02FEAF
:101B68001FFA8CF7B3FBF8F008FB1031230C43EA9B
:101B7800014300FB07F1994208D91CEB030300F16C
:101B8800FF362CD299422AD9023863445B1AA4B290
:101B9800B3FBF8F108FB113344EA034401FB07F3F4
:101BA800A34208D91CEB040401F1FF3613D2A34267
:101BB80011D902396444E41A41EA004139E704467C
:101BC800F0E6084606E7C845AED2B9EB020E63EB6D
:101BD800070C0138A8E73146EDE7034699E7304698
:101BE800D4E7D6467FE7634402384DE706462346E6
:101BF80008460FE7023E634430E700BF830730B56D
:101C080047D0541E002A3ED0CAB2034601E0013C28
:101C180039D303F8012B9D07F9D1032C2CD9CDB268
:101C280005EB05250F2C05EB054535D9A4F1100268
:101C380022F00F0C03F1100EE6444FEA121C1A466C
:101C4800156055609560D56010327245F8D10CF179
:101C5800010214F00C0F03EB021204F00F0C13D066
:101C6800ACF1040323F003030433134442F8045B88
:101C78009A42FBD10CF003042CB1C9B21C4403F8FE
:101C8800011B9C42FBD130BD64461346002CF4D1A5
:101C9800F9E703461446C0E71A46A446E0E700BF42
:101CA80070B50F4B0F4DAB42A3EB050607D0B6102E
:101CB800002455F8043B01349847A642F9D800F0AF
:101CC8007FF8094D094B5E1BAB424FEAA60606D0CA
:101CD800002455F8043B01349847A642F9D870BD52
:101CE800F81D0008F81D0008F81D0008001E00086F
:101CF800704700BF704700BF024B13B1024800F0A5
:101D080005B8704700000000211D000800230146A7
:101D18001A46184600F014B838B5074D074C2C1B66
:101D2800A41005D0013C55F8043D9847002CF9D182
:101D3800BDE8384000F04AB8041E0008001E00083C
:101D48002DE9F8431B4D0646286898460F469146EC
:101D5800FFF7CEFF184B1C681CB3286865681F2D59
:101D680022DC4EB96B1C0235636044F82570FFF71E
:101D7800C1FF0020BDE8F88304EB85010123C1F809
:101D88008890D4F88821AB401A43022EC4F88821E1
:101D9800C1F80881E6D1D4F88C211A43C4F88C2103
:101DA800E0E7064C1C60D8E7FFF7A4FF4FF0FF30D0
:101DB800E0E700BF0C000020F4000020F80000203D
:101DC800F8B500BFF8BC08BC9E467047F8B500BF20
:081DD800F8BC08BC9E467047F0
:101DE00000000000000000000102030406070809CB
:081DF00058FBFF7F0100000019
:081DF800011D0008250200088E
:041E0000FD010008D8
:101E040001000000100000000024F400F000002095
:040000050800172DAB
:00000001FF
